{
  "contractName": "Malicious",
  "abi": [
    {
      "inputs": [
        {
          "internalType": "address payable",
          "name": "_shkolFactoryAddress",
          "type": "address"
        }
      ],
      "stateMutability": "nonpayable",
      "type": "constructor"
    },
    {
      "inputs": [],
      "name": "shkolFactory",
      "outputs": [
        {
          "internalType": "contract ShkolFactory",
          "name": "",
          "type": "address"
        }
      ],
      "stateMutability": "view",
      "type": "function"
    },
    {
      "inputs": [
        {
          "internalType": "uint256",
          "name": "_withdrawAmount",
          "type": "uint256"
        }
      ],
      "name": "reentranceAttack",
      "outputs": [],
      "stateMutability": "nonpayable",
      "type": "function"
    }
  ],
  "bytecode": "0x608060405234801561000f575f80fd5b5060405161040f38038061040f833981810160405281019061003191906100d4565b805f806101000a81548173ffffffffffffffffffffffffffffffffffffffff021916908373ffffffffffffffffffffffffffffffffffffffff160217905550506100ff565b5f80fd5b5f73ffffffffffffffffffffffffffffffffffffffff82169050919050565b5f6100a38261007a565b9050919050565b6100b381610099565b81146100bd575f80fd5b50565b5f815190506100ce816100aa565b92915050565b5f602082840312156100e9576100e8610076565b5b5f6100f6848285016100c0565b91505092915050565b6103038061010c5f395ff3fe608060405234801561000f575f80fd5b5060043610610034575f3560e01c80634f1cc65414610038578063b2bde64b14610054575b5f80fd5b610052600480360381019061004d9190610173565b610072565b005b61005c610119565b6040516100699190610218565b60405180910390f35b5f5b600a811015610115575f8054906101000a900473ffffffffffffffffffffffffffffffffffffffff1673ffffffffffffffffffffffffffffffffffffffff16632e1a7d4d836040518263ffffffff1660e01b81526004016100d59190610240565b5f604051808303815f87803b1580156100ec575f80fd5b505af11580156100fe573d5f803e3d5ffd5b50505050808061010d90610286565b915050610074565b5050565b5f8054906101000a900473ffffffffffffffffffffffffffffffffffffffff1681565b5f80fd5b5f819050919050565b61015281610140565b811461015c575f80fd5b50565b5f8135905061016d81610149565b92915050565b5f602082840312156101885761018761013c565b5b5f6101958482850161015f565b91505092915050565b5f73ffffffffffffffffffffffffffffffffffffffff82169050919050565b5f819050919050565b5f6101e06101db6101d68461019e565b6101bd565b61019e565b9050919050565b5f6101f1826101c6565b9050919050565b5f610202826101e7565b9050919050565b610212816101f8565b82525050565b5f60208201905061022b5f830184610209565b92915050565b61023a81610140565b82525050565b5f6020820190506102535f830184610231565b92915050565b7f4e487b71000000000000000000000000000000000000000000000000000000005f52601160045260245ffd5b5f61029082610140565b91507fffffffffffffffffffffffffffffffffffffffffffffffffffffffffffffffff82036102c2576102c1610259565b5b60018201905091905056fea2646970667358221220811b904768de97de6ee4ec2c777d7991cb41ea89313ec940f951d2779f9f861464736f6c63430008140033",
  "immutableReferences": {},
  "source": "// SPDX-License-Identifier: MIT\npragma solidity ^0.8.0;\n\nimport {ShkolFactory} from \"./ShkolFactory.sol\";\n\ncontract Malicious {\n    ShkolFactory public shkolFactory;\n\n    constructor(address payable _shkolFactoryAddress) {\n        shkolFactory = ShkolFactory(_shkolFactoryAddress);\n    }\n\n    function reentranceAttack(uint256 _withdrawAmount) external {\n        // Malicious contract attempts reentrancy by calling ShkolFactory's withdraw function repeatedly\n        for (uint256 i = 0; i < 10; i++) {\n            shkolFactory.withdraw(_withdrawAmount);\n        }\n    }\n}",
  "sourcePath": "/Users/iri369/code/openzep/shkolz/contracts/Malicious.sol",
  "compiler": {
    "name": "solc",
    "version": "0.8.20+commit.a1b79de6.Emscripten.clang"
  },
  "schemaVersion": "3.4.14",
  "updatedAt": "2023-07-28T14:42:46.901Z",
  "devdoc": {
    "kind": "dev",
    "methods": {},
    "version": 1
  },
  "userdoc": {
    "kind": "user",
    "methods": {},
    "version": 1
  }
}