{
  "contractName": "ShkolFactory",
  "abi": [
    {
      "inputs": [],
      "stateMutability": "nonpayable",
      "type": "constructor"
    },
    {
      "anonymous": false,
      "inputs": [
        {
          "indexed": true,
          "internalType": "address",
          "name": "account",
          "type": "address"
        },
        {
          "indexed": false,
          "internalType": "uint256",
          "name": "amount",
          "type": "uint256"
        }
      ],
      "name": "Deposit",
      "type": "event"
    },
    {
      "anonymous": false,
      "inputs": [
        {
          "indexed": false,
          "internalType": "uint256",
          "name": "shkolId",
          "type": "uint256"
        },
        {
          "indexed": false,
          "internalType": "string",
          "name": "name",
          "type": "string"
        },
        {
          "indexed": false,
          "internalType": "address",
          "name": "owner",
          "type": "address"
        }
      ],
      "name": "NewShkol",
      "type": "event"
    },
    {
      "anonymous": false,
      "inputs": [
        {
          "indexed": true,
          "internalType": "address",
          "name": "previousOwner",
          "type": "address"
        },
        {
          "indexed": true,
          "internalType": "address",
          "name": "newOwner",
          "type": "address"
        }
      ],
      "name": "OwnershipTransferred",
      "type": "event"
    },
    {
      "anonymous": false,
      "inputs": [
        {
          "indexed": true,
          "internalType": "address",
          "name": "account",
          "type": "address"
        },
        {
          "indexed": false,
          "internalType": "uint256",
          "name": "amount",
          "type": "uint256"
        }
      ],
      "name": "Withdrawal",
      "type": "event"
    },
    {
      "inputs": [],
      "name": "owner",
      "outputs": [
        {
          "internalType": "address",
          "name": "",
          "type": "address"
        }
      ],
      "stateMutability": "view",
      "type": "function"
    },
    {
      "inputs": [
        {
          "internalType": "address",
          "name": "",
          "type": "address"
        }
      ],
      "name": "ownerShkolCount",
      "outputs": [
        {
          "internalType": "uint256",
          "name": "",
          "type": "uint256"
        }
      ],
      "stateMutability": "view",
      "type": "function"
    },
    {
      "inputs": [],
      "name": "renounceOwnership",
      "outputs": [],
      "stateMutability": "nonpayable",
      "type": "function"
    },
    {
      "inputs": [
        {
          "internalType": "uint256",
          "name": "",
          "type": "uint256"
        }
      ],
      "name": "shkillz",
      "outputs": [
        {
          "internalType": "string",
          "name": "name",
          "type": "string"
        },
        {
          "internalType": "uint256",
          "name": "level",
          "type": "uint256"
        },
        {
          "internalType": "uint256",
          "name": "complexityIndex",
          "type": "uint256"
        }
      ],
      "stateMutability": "view",
      "type": "function"
    },
    {
      "inputs": [
        {
          "internalType": "uint256",
          "name": "",
          "type": "uint256"
        },
        {
          "internalType": "uint256",
          "name": "",
          "type": "uint256"
        }
      ],
      "name": "shkolIdToShkillLevel",
      "outputs": [
        {
          "internalType": "uint256",
          "name": "",
          "type": "uint256"
        }
      ],
      "stateMutability": "view",
      "type": "function"
    },
    {
      "inputs": [
        {
          "internalType": "uint256",
          "name": "",
          "type": "uint256"
        }
      ],
      "name": "shkolToOwner",
      "outputs": [
        {
          "internalType": "address",
          "name": "",
          "type": "address"
        }
      ],
      "stateMutability": "view",
      "type": "function"
    },
    {
      "inputs": [
        {
          "internalType": "uint256",
          "name": "",
          "type": "uint256"
        },
        {
          "internalType": "uint256",
          "name": "",
          "type": "uint256"
        }
      ],
      "name": "shkolToShkills",
      "outputs": [
        {
          "internalType": "string",
          "name": "name",
          "type": "string"
        },
        {
          "internalType": "uint256",
          "name": "level",
          "type": "uint256"
        },
        {
          "internalType": "uint256",
          "name": "complexityIndex",
          "type": "uint256"
        }
      ],
      "stateMutability": "view",
      "type": "function"
    },
    {
      "inputs": [
        {
          "internalType": "uint256",
          "name": "",
          "type": "uint256"
        }
      ],
      "name": "shkolz",
      "outputs": [
        {
          "internalType": "string",
          "name": "name",
          "type": "string"
        },
        {
          "internalType": "uint256",
          "name": "dna",
          "type": "uint256"
        },
        {
          "internalType": "uint32",
          "name": "level",
          "type": "uint32"
        },
        {
          "internalType": "uint32",
          "name": "readyTime",
          "type": "uint32"
        },
        {
          "internalType": "uint16",
          "name": "winCount",
          "type": "uint16"
        },
        {
          "internalType": "uint16",
          "name": "lossCount",
          "type": "uint16"
        }
      ],
      "stateMutability": "view",
      "type": "function"
    },
    {
      "inputs": [
        {
          "internalType": "address",
          "name": "newOwner",
          "type": "address"
        }
      ],
      "name": "transferOwnership",
      "outputs": [],
      "stateMutability": "nonpayable",
      "type": "function"
    },
    {
      "stateMutability": "payable",
      "type": "receive"
    },
    {
      "inputs": [
        {
          "internalType": "string",
          "name": "_name",
          "type": "string"
        }
      ],
      "name": "createRandomShkol",
      "outputs": [],
      "stateMutability": "nonpayable",
      "type": "function"
    },
    {
      "inputs": [],
      "name": "clearShkillz",
      "outputs": [],
      "stateMutability": "nonpayable",
      "type": "function"
    },
    {
      "inputs": [],
      "name": "getShkillzLength",
      "outputs": [
        {
          "internalType": "uint256",
          "name": "",
          "type": "uint256"
        }
      ],
      "stateMutability": "view",
      "type": "function"
    },
    {
      "inputs": [
        {
          "internalType": "string",
          "name": "_name",
          "type": "string"
        },
        {
          "internalType": "uint256",
          "name": "_complexity",
          "type": "uint256"
        }
      ],
      "name": "addShkill",
      "outputs": [],
      "stateMutability": "nonpayable",
      "type": "function"
    },
    {
      "inputs": [
        {
          "internalType": "uint256",
          "name": "_amount",
          "type": "uint256"
        }
      ],
      "name": "withdraw",
      "outputs": [],
      "stateMutability": "nonpayable",
      "type": "function"
    }
  ],
  "bytecode": "0x60806040526010600155600154600a6200001a9190620005fa565b60025562093a8060035534801562000030575f80fd5b5062000051620000456200006760201b60201c565b6200006e60201b60201c565b620000616200012f60201b60201c565b62000989565b5f33905090565b5f805f9054906101000a900473ffffffffffffffffffffffffffffffffffffffff169050815f806101000a81548173ffffffffffffffffffffffffffffffffffffffff021916908373ffffffffffffffffffffffffffffffffffffffff1602179055508173ffffffffffffffffffffffffffffffffffffffff168173ffffffffffffffffffffffffffffffffffffffff167f8be0079c531659141344cd1fd0a4f28419497f9722a3daafe3b4186f6b6457e060405160405180910390a35050565b620001776040518060400160405280600681526020017f417274697374000000000000000000000000000000000000000000000000000081525060086200040160201b60201c565b620001bf6040518060400160405280600481526020017f436f6f6b0000000000000000000000000000000000000000000000000000000081525060076200040160201b60201c565b620002076040518060400160405280600881526020017f48616e64796d616e00000000000000000000000000000000000000000000000081525060076200040160201b60201c565b6200024f6040518060400160405280600681526020017f446f63746f72000000000000000000000000000000000000000000000000000081525060096200040160201b60201c565b620002976040518060400160405280600981526020017f50726f666573736f72000000000000000000000000000000000000000000000081525060086200040160201b60201c565b620002df6040518060400160405280600681526020017f4c6177796572000000000000000000000000000000000000000000000000000081525060076200040160201b60201c565b620003276040518060400160405280600881526020017f44657369676e657200000000000000000000000000000000000000000000000081525060076200040160201b60201c565b6200036f6040518060400160405280600a81526020017f50726f6772616d6d65720000000000000000000000000000000000000000000081525060086200040160201b60201c565b620003b76040518060400160405280600881526020017f4d7573696369616e00000000000000000000000000000000000000000000000081525060086200040160201b60201c565b620003ff6040518060400160405280600781526020017f4174686c6574650000000000000000000000000000000000000000000000000081525060086200040160201b60201c565b565b600760405180606001604052808481526020015f815260200183815250908060018154018082558091505060019003905f5260205f2090600302015f909190919091505f820151815f019081620004599190620008a5565b50602082015181600101556040820151816002015550505050565b7f4e487b71000000000000000000000000000000000000000000000000000000005f52601160045260245ffd5b5f8160011c9050919050565b5f808291508390505b6001851115620004fe57808604811115620004d657620004d562000474565b5b6001851615620004e65780820291505b8081029050620004f685620004a1565b9450620004b6565b94509492505050565b5f82620005185760019050620005ea565b8162000527575f9050620005ea565b81600181146200054057600281146200054b5762000581565b6001915050620005ea565b60ff84111562000560576200055f62000474565b5b8360020a9150848211156200057a576200057962000474565b5b50620005ea565b5060208310610133831016604e8410600b8410161715620005bb5782820a905083811115620005b557620005b462000474565b5b620005ea565b620005ca8484846001620004ad565b92509050818404811115620005e457620005e362000474565b5b81810290505b9392505050565b5f819050919050565b5f6200060682620005f1565b91506200061383620005f1565b9250620006427fffffffffffffffffffffffffffffffffffffffffffffffffffffffffffffffff848462000507565b905092915050565b5f81519050919050565b7f4e487b71000000000000000000000000000000000000000000000000000000005f52604160045260245ffd5b7f4e487b71000000000000000000000000000000000000000000000000000000005f52602260045260245ffd5b5f6002820490506001821680620006c657607f821691505b602082108103620006dc57620006db62000681565b5b50919050565b5f819050815f5260205f209050919050565b5f6020601f8301049050919050565b5f82821b905092915050565b5f60088302620007407fffffffffffffffffffffffffffffffffffffffffffffffffffffffffffffffff8262000703565b6200074c868362000703565b95508019841693508086168417925050509392505050565b5f819050919050565b5f6200078d620007876200078184620005f1565b62000764565b620005f1565b9050919050565b5f819050919050565b620007a8836200076d565b620007c0620007b78262000794565b8484546200070f565b825550505050565b5f90565b620007d6620007c8565b620007e38184846200079d565b505050565b5b818110156200080a57620007fe5f82620007cc565b600181019050620007e9565b5050565b601f82111562000859576200082381620006e2565b6200082e84620006f4565b810160208510156200083e578190505b620008566200084d85620006f4565b830182620007e8565b50505b505050565b5f82821c905092915050565b5f6200087b5f19846008026200085e565b1980831691505092915050565b5f6200089583836200086a565b9150826002028217905092915050565b620008b0826200064a565b67ffffffffffffffff811115620008cc57620008cb62000654565b5b620008d88254620006ae565b620008e58282856200080e565b5f60209050601f8311600181146200091b575f841562000906578287015190505b62000912858262000888565b86555062000981565b601f1984166200092b86620006e2565b5f5b8281101562000954578489015182556001820191506020850194506020810190506200092d565b8683101562000974578489015162000970601f8916826200086a565b8355505b6001600288020188555050505b505050505050565b611ddb80620009975f395ff3fe6080604052600436106100e0575f3560e01c80638f649a9f1161007e578063d42fd4ca11610058578063d42fd4ca1461030d578063e73ff1261461034e578063f2fde38b1461038c578063fdfedc36146103b457610135565b80638f649a9f1461027f578063a58a21f8146102bb578063b3ff9cb3146102e557610135565b8063715018a6116100ba578063715018a6146101d957806372d3fd4a146101ef57806382cb7c701461022d5780638da5cb5b1461025557610135565b8063105b45c9146101395780632e1a7d4d1461017557806332680efe1461019d57610135565b36610135573373ffffffffffffffffffffffffffffffffffffffff167fe1fffcc4923d04b559f4d29a8bfc6cda04eb5b0d3c460751c2402c5c5cc9109c3460405161012b9190610f95565b60405180910390a2005b5f80fd5b348015610144575f80fd5b5061015f600480360381019061015a9190610fe9565b6103ca565b60405161016c9190611053565b60405180910390f35b348015610180575f80fd5b5061019b60048036038101906101969190610fe9565b6103fa565b005b3480156101a8575f80fd5b506101c360048036038101906101be9190611096565b61060a565b6040516101d09190610f95565b60405180910390f35b3480156101e4575f80fd5b506101ed61061f565b005b3480156101fa575f80fd5b5061021560048036038101906102109190610fe9565b610632565b6040516102249392919061114b565b60405180910390f35b348015610238575f80fd5b50610253600480360381019061024e91906112b3565b6106ed565b005b348015610260575f80fd5b50610269610703565b6040516102769190611053565b60405180910390f35b34801561028a575f80fd5b506102a560048036038101906102a0919061130d565b61072a565b6040516102b29190610f95565b60405180910390f35b3480156102c6575f80fd5b506102cf61074a565b6040516102dc9190610f95565b60405180910390f35b3480156102f0575f80fd5b5061030b6004803603810190610306919061134b565b610756565b005b348015610318575f80fd5b50610333600480360381019061032e9190610fe9565b6107d2565b604051610345969594939291906113cc565b60405180910390f35b348015610359575f80fd5b50610374600480360381019061036f919061130d565b6108da565b6040516103839392919061114b565b60405180910390f35b348015610397575f80fd5b506103b260048036038101906103ad9190611096565b6109a0565b005b3480156103bf575f80fd5b506103c8610a22565b005b6005602052805f5260405f205f915054906101000a900473ffffffffffffffffffffffffffffffffffffffff1681565b610402610a39565b5f60149054906101000a900460ff1615610451576040517f08c379a00000000000000000000000000000000000000000000000000000000081526004016104489061147c565b60405180910390fd5b60015f60146101000a81548160ff0219169083151502179055505f81116104ad576040517f08c379a00000000000000000000000000000000000000000000000000000000081526004016104a49061150a565b60405180910390fd5b478111156104f0576040517f08c379a00000000000000000000000000000000000000000000000000000000081526004016104e790611572565b60405180910390fd5b5f6104f9610703565b73ffffffffffffffffffffffffffffffffffffffff168260405161051c906115bd565b5f6040518083038185875af1925050503d805f8114610556576040519150601f19603f3d011682016040523d82523d5f602084013e61055b565b606091505b505090508061059f576040517f08c379a00000000000000000000000000000000000000000000000000000000081526004016105969061161b565b60405180910390fd5b3373ffffffffffffffffffffffffffffffffffffffff167f7fcf532c15f0a6db0bd6d0e038bea71d30d808c7d98cb3bf7268a95bf5081b65836040516105e59190610f95565b60405180910390a2505f8060146101000a81548160ff02191690831515021790555050565b6006602052805f5260405f205f915090505481565b610627610a39565b6106305f610ab7565b565b60078181548110610641575f80fd5b905f5260205f2090600302015f91509050805f01805461066090611666565b80601f016020809104026020016040519081016040528092919081815260200182805461068c90611666565b80156106d75780601f106106ae576101008083540402835291602001916106d7565b820191905f5260205f20905b8154815290600101906020018083116106ba57829003601f168201915b5050505050908060010154908060020154905083565b6106f5610a39565b6106ff8282610b78565b5050565b5f805f9054906101000a900473ffffffffffffffffffffffffffffffffffffffff16905090565b600a602052815f5260405f20602052805f5260405f205f91509150505481565b5f600780549050905090565b5f60065f3373ffffffffffffffffffffffffffffffffffffffff1673ffffffffffffffffffffffffffffffffffffffff1681526020019081526020015f20541461079e575f80fd5b5f6107a882610be9565b90506064816107b791906116c3565b816107c29190611720565b90506107ce8282610c7a565b5050565b600481815481106107e1575f80fd5b905f5260205f2090600302015f91509050805f01805461080090611666565b80601f016020809104026020016040519081016040528092919081815260200182805461082c90611666565b80156108775780601f1061084e57610100808354040283529160200191610877565b820191905f5260205f20905b81548152906001019060200180831161085a57829003601f168201915b505050505090806001015490806002015f9054906101000a900463ffffffff16908060020160049054906101000a900463ffffffff16908060020160089054906101000a900461ffff169080600201600a9054906101000a900461ffff16905086565b6008602052815f5260405f2081815481106108f3575f80fd5b905f5260205f2090600302015f9150915050805f01805461091390611666565b80601f016020809104026020016040519081016040528092919081815260200182805461093f90611666565b801561098a5780601f106109615761010080835404028352916020019161098a565b820191905f5260205f20905b81548152906001019060200180831161096d57829003601f168201915b5050505050908060010154908060020154905083565b6109a8610a39565b5f73ffffffffffffffffffffffffffffffffffffffff168173ffffffffffffffffffffffffffffffffffffffff1603610a16576040517f08c379a0000000000000000000000000000000000000000000000000000000008152600401610a0d906117c3565b60405180910390fd5b610a1f81610ab7565b50565b610a2a610a39565b60075f610a379190610ed1565b565b610a41610e99565b73ffffffffffffffffffffffffffffffffffffffff16610a5f610703565b73ffffffffffffffffffffffffffffffffffffffff1614610ab5576040517f08c379a0000000000000000000000000000000000000000000000000000000008152600401610aac9061182b565b60405180910390fd5b565b5f805f9054906101000a900473ffffffffffffffffffffffffffffffffffffffff169050815f806101000a81548173ffffffffffffffffffffffffffffffffffffffff021916908373ffffffffffffffffffffffffffffffffffffffff1602179055508173ffffffffffffffffffffffffffffffffffffffff168173ffffffffffffffffffffffffffffffffffffffff167f8be0079c531659141344cd1fd0a4f28419497f9722a3daafe3b4186f6b6457e060405160405180910390a35050565b600760405180606001604052808481526020015f815260200183815250908060018154018082558091505060019003905f5260205f2090600302015f909190919091505f820151815f019081610bce91906119e6565b50602082015181600101556040820151816002015550505050565b5f8082604051602001610bfc9190611aef565b604051602081830303815290604052805190602001205f1c905060025481610c2491906116c3565b90505f6001610c3283610ea0565b610c3c9190611b05565b600154610c499190611720565b90508181600a610c599190611c67565b610c639190611cb1565b82610c6e9190611b05565b91508192505050919050565b60046040518060c0016040528084815260200183815260200160035442610ca19190611b05565b63ffffffff1681526020015f63ffffffff1681526020015f61ffff1681526020015f61ffff16815250908060018154018082558091505060019003905f5260205f2090600302015f909190919091505f820151815f019081610d0391906119e6565b50602082015181600101556040820151816002015f6101000a81548163ffffffff021916908363ffffffff16021790555060608201518160020160046101000a81548163ffffffff021916908363ffffffff16021790555060808201518160020160086101000a81548161ffff021916908361ffff16021790555060a082015181600201600a6101000a81548161ffff021916908361ffff16021790555050505f6001600480549050610db69190611720565b90503360055f8381526020019081526020015f205f6101000a81548173ffffffffffffffffffffffffffffffffffffffff021916908373ffffffffffffffffffffffffffffffffffffffff16021790555060065f3373ffffffffffffffffffffffffffffffffffffffff1673ffffffffffffffffffffffffffffffffffffffff1681526020019081526020015f205f815480929190610e5490611cf2565b91905055507f725dc5868eeb42945cc94de22c1b3fcdac104c704231bf0e550d9febda7ab487818433604051610e8c93929190611d39565b60405180910390a1505050565b5f33905090565b5f5b600a8210610ecc57600a82610eb79190611d75565b91508080610ec490611cf2565b915050610ea2565b919050565b5080545f8255600302905f5260205f2090810190610eef9190610ef2565b50565b5b80821115610f21575f8082015f610f0a9190610f25565b600182015f9055600282015f905550600301610ef3565b5090565b508054610f3190611666565b5f825580601f10610f425750610f5f565b601f0160209004905f5260205f2090810190610f5e9190610f62565b5b50565b5b80821115610f79575f815f905550600101610f63565b5090565b5f819050919050565b610f8f81610f7d565b82525050565b5f602082019050610fa85f830184610f86565b92915050565b5f604051905090565b5f80fd5b5f80fd5b610fc881610f7d565b8114610fd2575f80fd5b50565b5f81359050610fe381610fbf565b92915050565b5f60208284031215610ffe57610ffd610fb7565b5b5f61100b84828501610fd5565b91505092915050565b5f73ffffffffffffffffffffffffffffffffffffffff82169050919050565b5f61103d82611014565b9050919050565b61104d81611033565b82525050565b5f6020820190506110665f830184611044565b92915050565b61107581611033565b811461107f575f80fd5b50565b5f813590506110908161106c565b92915050565b5f602082840312156110ab576110aa610fb7565b5b5f6110b884828501611082565b91505092915050565b5f81519050919050565b5f82825260208201905092915050565b5f5b838110156110f85780820151818401526020810190506110dd565b5f8484015250505050565b5f601f19601f8301169050919050565b5f61111d826110c1565b61112781856110cb565b93506111378185602086016110db565b61114081611103565b840191505092915050565b5f6060820190508181035f8301526111638186611113565b90506111726020830185610f86565b61117f6040830184610f86565b949350505050565b5f80fd5b5f80fd5b7f4e487b71000000000000000000000000000000000000000000000000000000005f52604160045260245ffd5b6111c582611103565b810181811067ffffffffffffffff821117156111e4576111e361118f565b5b80604052505050565b5f6111f6610fae565b905061120282826111bc565b919050565b5f67ffffffffffffffff8211156112215761122061118f565b5b61122a82611103565b9050602081019050919050565b828183375f83830152505050565b5f61125761125284611207565b6111ed565b9050828152602081018484840111156112735761127261118b565b5b61127e848285611237565b509392505050565b5f82601f83011261129a57611299611187565b5b81356112aa848260208601611245565b91505092915050565b5f80604083850312156112c9576112c8610fb7565b5b5f83013567ffffffffffffffff8111156112e6576112e5610fbb565b5b6112f285828601611286565b925050602061130385828601610fd5565b9150509250929050565b5f806040838503121561132357611322610fb7565b5b5f61133085828601610fd5565b925050602061134185828601610fd5565b9150509250929050565b5f602082840312156113605761135f610fb7565b5b5f82013567ffffffffffffffff81111561137d5761137c610fbb565b5b61138984828501611286565b91505092915050565b5f63ffffffff82169050919050565b6113aa81611392565b82525050565b5f61ffff82169050919050565b6113c6816113b0565b82525050565b5f60c0820190508181035f8301526113e48189611113565b90506113f36020830188610f86565b61140060408301876113a1565b61140d60608301866113a1565b61141a60808301856113bd565b61142760a08301846113bd565b979650505050505050565b7f5265656e7472616e742063616c6c0000000000000000000000000000000000005f82015250565b5f611466600e836110cb565b915061147182611432565b602082019050919050565b5f6020820190508181035f8301526114938161145a565b9050919050565b7f5769746864726177616c20616d6f756e74206d757374206265206772656174655f8201527f72207468616e2030000000000000000000000000000000000000000000000000602082015250565b5f6114f46028836110cb565b91506114ff8261149a565b604082019050919050565b5f6020820190508181035f830152611521816114e8565b9050919050565b7f496e73756666696369656e7420636f6e74726163742062616c616e63650000005f82015250565b5f61155c601d836110cb565b915061156782611528565b602082019050919050565b5f6020820190508181035f83015261158981611550565b9050919050565b5f81905092915050565b50565b5f6115a85f83611590565b91506115b38261159a565b5f82019050919050565b5f6115c78261159d565b9150819050919050565b7f5769746864726177616c206661696c65640000000000000000000000000000005f82015250565b5f6116056011836110cb565b9150611610826115d1565b602082019050919050565b5f6020820190508181035f830152611632816115f9565b9050919050565b7f4e487b71000000000000000000000000000000000000000000000000000000005f52602260045260245ffd5b5f600282049050600182168061167d57607f821691505b6020821081036116905761168f611639565b5b50919050565b7f4e487b71000000000000000000000000000000000000000000000000000000005f52601260045260245ffd5b5f6116cd82610f7d565b91506116d883610f7d565b9250826116e8576116e7611696565b5b828206905092915050565b7f4e487b71000000000000000000000000000000000000000000000000000000005f52601160045260245ffd5b5f61172a82610f7d565b915061173583610f7d565b925082820390508181111561174d5761174c6116f3565b5b92915050565b7f4f776e61626c653a206e6577206f776e657220697320746865207a65726f20615f8201527f6464726573730000000000000000000000000000000000000000000000000000602082015250565b5f6117ad6026836110cb565b91506117b882611753565b604082019050919050565b5f6020820190508181035f8301526117da816117a1565b9050919050565b7f4f776e61626c653a2063616c6c6572206973206e6f7420746865206f776e65725f82015250565b5f6118156020836110cb565b9150611820826117e1565b602082019050919050565b5f6020820190508181035f83015261184281611809565b9050919050565b5f819050815f5260205f209050919050565b5f6020601f8301049050919050565b5f82821b905092915050565b5f600883026118a57fffffffffffffffffffffffffffffffffffffffffffffffffffffffffffffffff8261186a565b6118af868361186a565b95508019841693508086168417925050509392505050565b5f819050919050565b5f6118ea6118e56118e084610f7d565b6118c7565b610f7d565b9050919050565b5f819050919050565b611903836118d0565b61191761190f826118f1565b848454611876565b825550505050565b5f90565b61192b61191f565b6119368184846118fa565b505050565b5b818110156119595761194e5f82611923565b60018101905061193c565b5050565b601f82111561199e5761196f81611849565b6119788461185b565b81016020851015611987578190505b61199b6119938561185b565b83018261193b565b50505b505050565b5f82821c905092915050565b5f6119be5f19846008026119a3565b1980831691505092915050565b5f6119d683836119af565b9150826002028217905092915050565b6119ef826110c1565b67ffffffffffffffff811115611a0857611a0761118f565b5b611a128254611666565b611a1d82828561195d565b5f60209050601f831160018114611a4e575f8415611a3c578287015190505b611a4685826119cb565b865550611aad565b601f198416611a5c86611849565b5f5b82811015611a8357848901518255600182019150602085019450602081019050611a5e565b86831015611aa05784890151611a9c601f8916826119af565b8355505b6001600288020188555050505b505050505050565b5f81905092915050565b5f611ac9826110c1565b611ad38185611ab5565b9350611ae38185602086016110db565b80840191505092915050565b5f611afa8284611abf565b915081905092915050565b5f611b0f82610f7d565b9150611b1a83610f7d565b9250828201905080821115611b3257611b316116f3565b5b92915050565b5f8160011c9050919050565b5f808291508390505b6001851115611b8d57808604811115611b6957611b686116f3565b5b6001851615611b785780820291505b8081029050611b8685611b38565b9450611b4d565b94509492505050565b5f82611ba55760019050611c60565b81611bb2575f9050611c60565b8160018114611bc85760028114611bd257611c01565b6001915050611c60565b60ff841115611be457611be36116f3565b5b8360020a915084821115611bfb57611bfa6116f3565b5b50611c60565b5060208310610133831016604e8410600b8410161715611c365782820a905083811115611c3157611c306116f3565b5b611c60565b611c438484846001611b44565b92509050818404811115611c5a57611c596116f3565b5b81810290505b9392505050565b5f611c7182610f7d565b9150611c7c83610f7d565b9250611ca97fffffffffffffffffffffffffffffffffffffffffffffffffffffffffffffffff8484611b96565b905092915050565b5f611cbb82610f7d565b9150611cc683610f7d565b9250828202611cd481610f7d565b91508282048414831517611ceb57611cea6116f3565b5b5092915050565b5f611cfc82610f7d565b91507fffffffffffffffffffffffffffffffffffffffffffffffffffffffffffffffff8203611d2e57611d2d6116f3565b5b600182019050919050565b5f606082019050611d4c5f830186610f86565b8181036020830152611d5e8185611113565b9050611d6d6040830184611044565b949350505050565b5f611d7f82610f7d565b9150611d8a83610f7d565b925082611d9a57611d99611696565b5b82820490509291505056fea2646970667358221220d2a2933cfff8c09809a382fa2763c4510a8de3f7ad15fc7e64e13be7173dfbc764736f6c63430008140033",
  "immutableReferences": {},
  "source": "// SPDX-License-Identifier: MIT\npragma solidity ^0.8.0;\n\nimport {Ownable} from \"@openzeppelin/contracts/access/Ownable.sol\";\nimport {SafeMath} from \"@openzeppelin/contracts/utils/math/SafeMath.sol\";\n\n\ncontract ShkolFactory is Ownable {\n    using SafeMath for uint256;\n    \n    event NewShkol(uint shkolId, string name, address owner);\n    event Deposit(address indexed account, uint256 amount);\n    event Withdrawal(address indexed account, uint256 amount);\n\n    constructor() Ownable() {\n        initializeCoreShkillz();\n    }\n\n    // Mutex-like variable to prevent reentrancy attack\n    bool private _isWithdrawing;\n\n    modifier preventReentrancy() {\n        require(!_isWithdrawing, \"Reentrant call\");\n        _isWithdrawing = true;\n        _;\n        _isWithdrawing = false;\n    }\n\n    //todo this will be used for NFT generation\n    uint dnaDigits = 16;\n    uint dnaModulus = 10 ** dnaDigits;\n\n    //todo this can be the min amount of time between minting a new skill\n    uint cooldownTime = 1 weeks;\n\n    struct Shkol {\n        string name;\n        uint dna;\n        uint32 level;\n        uint32 readyTime;\n        uint16 winCount; //challenges won\n        uint16 lossCount; //challenges lost\n    }\n\n    //todo a Shkol can have Shkillz (set of skillz)\n    struct Shkill {\n        string name;\n        uint level;\n        uint complexityIndex; //how hard is it to validate\n    }\n\n    Shkol[] public shkolz;\n    mapping(uint => address) public shkolToOwner;\n    mapping(address => uint) public ownerShkolCount;\n\n    Shkill[] public shkillz;\n    mapping(uint => Shkill[]) public shkolToShkills; // This mapping links each shkol to its Shkills\n    mapping(uint => Shkill) shkills; // This mapping links each shkillId to a Shkill\n    mapping(uint => mapping(uint => uint)) public shkolIdToShkillLevel; //This mapping links each shkol to its shkill and shkill level\n\n    function _createShkol(string memory _name, uint _dna) internal {\n        shkolz.push(\n            Shkol(_name, _dna, uint32(block.timestamp + cooldownTime), 0, 0, 0)\n        );\n        uint id = shkolz.length - 1;\n        shkolToOwner[id] = msg.sender;\n        ownerShkolCount[msg.sender]++;\n        emit NewShkol(id, _name, msg.sender);\n    }\n\n    function _generateRandomDna(string memory _str) private view returns (uint) {\n    uint rand = uint(keccak256(abi.encodePacked(_str)));\n    rand = rand % dnaModulus;\n    uint requiredDigits = dnaDigits - uint(log10(rand) + 1);\n    rand += uint(10**requiredDigits) * rand;\n    return rand;\n}\nfunction log10(uint x) internal pure returns (uint y){\n    while (x >= 10) {\n        x /= 10;\n        y++;\n    }\n}\n\n\n\n    function createRandomShkol(string memory _name) public {\n        require(ownerShkolCount[msg.sender] == 0);\n        uint randDna = _generateRandomDna(_name);\n        randDna = randDna - (randDna % 100);\n        _createShkol(_name, randDna);\n    }\n\n    function initializeCoreShkillz() internal {\n        _createShkill(\"Artist\", 8);\n        _createShkill(\"Cook\", 7);\n        _createShkill(\"Handyman\", 7);\n        _createShkill(\"Doctor\", 9);\n        _createShkill(\"Professor\", 8);\n        _createShkill(\"Lawyer\", 7);\n        _createShkill(\"Designer\", 7);\n        _createShkill(\"Programmer\", 8);\n        _createShkill(\"Musician\", 8);\n        _createShkill(\"Athlete\", 8);\n    }\n\n    function _createShkill(string memory _name, uint _complexity) internal {\n        shkillz.push(Shkill(_name, 0, _complexity));\n    }\n\n    function clearShkillz() external onlyOwner {\n        delete shkillz;\n    }\n\n    function getShkillzLength() public view returns (uint) {\n        return shkillz.length;\n    }\n\n    //adding a skill would require votes\n    function addShkill(\n        string memory _name,\n        uint _complexity\n    ) external onlyOwner {\n        _createShkill(_name, _complexity);\n    }\n\n    function withdraw(uint256 _amount) external onlyOwner preventReentrancy {\n        require(_amount > 0, \"Withdrawal amount must be greater than 0\");\n        require(_amount <= address(this).balance, \"Insufficient contract balance\");\n        (bool success, ) = owner().call{value: _amount}(\"\");\n        require(success, \"Withdrawal failed\");\n        emit Withdrawal(msg.sender, _amount);\n    }\n    // Fallback function to receive ether\n    receive() external payable {\n        emit Deposit(msg.sender, msg.value);\n    }\n}\n",
  "sourcePath": "/Users/iri369/code/openzep/shkolz/contracts/ShkolFactory.sol",
  "compiler": {
    "name": "solc",
    "version": "0.8.20+commit.a1b79de6.Emscripten.clang"
  },
  "schemaVersion": "3.4.14",
  "updatedAt": "2023-07-28T09:39:49.775Z",
  "devdoc": {
    "kind": "dev",
    "methods": {
      "owner()": {
        "details": "Returns the address of the current owner."
      },
      "renounceOwnership()": {
        "details": "Leaves the contract without owner. It will not be possible to call `onlyOwner` functions. Can only be called by the current owner. NOTE: Renouncing ownership will leave the contract without an owner, thereby disabling any functionality that is only available to the owner."
      },
      "transferOwnership(address)": {
        "details": "Transfers ownership of the contract to a new account (`newOwner`). Can only be called by the current owner."
      }
    },
    "version": 1
  },
  "userdoc": {
    "kind": "user",
    "methods": {},
    "version": 1
  }
}