{
  "contractName": "ShkolDevelopment",
  "abi": [
    {
      "anonymous": false,
      "inputs": [
        {
          "indexed": true,
          "internalType": "address",
          "name": "account",
          "type": "address"
        },
        {
          "indexed": false,
          "internalType": "uint256",
          "name": "amount",
          "type": "uint256"
        }
      ],
      "name": "Deposit",
      "type": "event"
    },
    {
      "anonymous": false,
      "inputs": [
        {
          "indexed": false,
          "internalType": "uint256",
          "name": "shkolId",
          "type": "uint256"
        },
        {
          "indexed": false,
          "internalType": "string",
          "name": "name",
          "type": "string"
        },
        {
          "indexed": false,
          "internalType": "address",
          "name": "owner",
          "type": "address"
        }
      ],
      "name": "NewShkol",
      "type": "event"
    },
    {
      "anonymous": false,
      "inputs": [
        {
          "indexed": true,
          "internalType": "address",
          "name": "previousOwner",
          "type": "address"
        },
        {
          "indexed": true,
          "internalType": "address",
          "name": "newOwner",
          "type": "address"
        }
      ],
      "name": "OwnershipTransferred",
      "type": "event"
    },
    {
      "anonymous": false,
      "inputs": [
        {
          "indexed": true,
          "internalType": "uint256",
          "name": "shkolId",
          "type": "uint256"
        },
        {
          "indexed": true,
          "internalType": "uint256",
          "name": "shkillId",
          "type": "uint256"
        }
      ],
      "name": "ShkillAssigned",
      "type": "event"
    },
    {
      "anonymous": false,
      "inputs": [
        {
          "indexed": true,
          "internalType": "uint256",
          "name": "shkolId",
          "type": "uint256"
        },
        {
          "indexed": true,
          "internalType": "uint256",
          "name": "shkillId",
          "type": "uint256"
        },
        {
          "indexed": false,
          "internalType": "uint256",
          "name": "newLevel",
          "type": "uint256"
        }
      ],
      "name": "ShkillLeveledUp",
      "type": "event"
    },
    {
      "anonymous": false,
      "inputs": [
        {
          "indexed": true,
          "internalType": "address",
          "name": "account",
          "type": "address"
        },
        {
          "indexed": false,
          "internalType": "uint256",
          "name": "amount",
          "type": "uint256"
        }
      ],
      "name": "Withdrawal",
      "type": "event"
    },
    {
      "inputs": [
        {
          "internalType": "string",
          "name": "_name",
          "type": "string"
        },
        {
          "internalType": "uint256",
          "name": "_complexity",
          "type": "uint256"
        }
      ],
      "name": "addShkill",
      "outputs": [],
      "stateMutability": "nonpayable",
      "type": "function"
    },
    {
      "inputs": [],
      "name": "clearShkillz",
      "outputs": [],
      "stateMutability": "nonpayable",
      "type": "function"
    },
    {
      "inputs": [
        {
          "internalType": "string",
          "name": "_name",
          "type": "string"
        }
      ],
      "name": "createRandomShkol",
      "outputs": [],
      "stateMutability": "nonpayable",
      "type": "function"
    },
    {
      "inputs": [],
      "name": "getShkillzLength",
      "outputs": [
        {
          "internalType": "uint256",
          "name": "",
          "type": "uint256"
        }
      ],
      "stateMutability": "view",
      "type": "function"
    },
    {
      "inputs": [],
      "name": "owner",
      "outputs": [
        {
          "internalType": "address",
          "name": "",
          "type": "address"
        }
      ],
      "stateMutability": "view",
      "type": "function"
    },
    {
      "inputs": [
        {
          "internalType": "address",
          "name": "",
          "type": "address"
        }
      ],
      "name": "ownerShkolCount",
      "outputs": [
        {
          "internalType": "uint256",
          "name": "",
          "type": "uint256"
        }
      ],
      "stateMutability": "view",
      "type": "function"
    },
    {
      "inputs": [],
      "name": "renounceOwnership",
      "outputs": [],
      "stateMutability": "nonpayable",
      "type": "function"
    },
    {
      "inputs": [
        {
          "internalType": "uint256",
          "name": "",
          "type": "uint256"
        }
      ],
      "name": "shkillz",
      "outputs": [
        {
          "internalType": "string",
          "name": "name",
          "type": "string"
        },
        {
          "internalType": "uint256",
          "name": "level",
          "type": "uint256"
        },
        {
          "internalType": "uint256",
          "name": "complexityIndex",
          "type": "uint256"
        }
      ],
      "stateMutability": "view",
      "type": "function"
    },
    {
      "inputs": [
        {
          "internalType": "uint256",
          "name": "",
          "type": "uint256"
        },
        {
          "internalType": "uint256",
          "name": "",
          "type": "uint256"
        }
      ],
      "name": "shkolIdToShkillLevel",
      "outputs": [
        {
          "internalType": "uint256",
          "name": "",
          "type": "uint256"
        }
      ],
      "stateMutability": "view",
      "type": "function"
    },
    {
      "inputs": [
        {
          "internalType": "uint256",
          "name": "",
          "type": "uint256"
        }
      ],
      "name": "shkolToOwner",
      "outputs": [
        {
          "internalType": "address",
          "name": "",
          "type": "address"
        }
      ],
      "stateMutability": "view",
      "type": "function"
    },
    {
      "inputs": [
        {
          "internalType": "uint256",
          "name": "",
          "type": "uint256"
        },
        {
          "internalType": "uint256",
          "name": "",
          "type": "uint256"
        }
      ],
      "name": "shkolToShkills",
      "outputs": [
        {
          "internalType": "string",
          "name": "name",
          "type": "string"
        },
        {
          "internalType": "uint256",
          "name": "level",
          "type": "uint256"
        },
        {
          "internalType": "uint256",
          "name": "complexityIndex",
          "type": "uint256"
        }
      ],
      "stateMutability": "view",
      "type": "function"
    },
    {
      "inputs": [
        {
          "internalType": "uint256",
          "name": "",
          "type": "uint256"
        }
      ],
      "name": "shkolz",
      "outputs": [
        {
          "internalType": "string",
          "name": "name",
          "type": "string"
        },
        {
          "internalType": "uint256",
          "name": "dna",
          "type": "uint256"
        },
        {
          "internalType": "uint32",
          "name": "level",
          "type": "uint32"
        },
        {
          "internalType": "uint32",
          "name": "readyTime",
          "type": "uint32"
        },
        {
          "internalType": "uint16",
          "name": "winCount",
          "type": "uint16"
        },
        {
          "internalType": "uint16",
          "name": "lossCount",
          "type": "uint16"
        }
      ],
      "stateMutability": "view",
      "type": "function"
    },
    {
      "inputs": [
        {
          "internalType": "address",
          "name": "newOwner",
          "type": "address"
        }
      ],
      "name": "transferOwnership",
      "outputs": [],
      "stateMutability": "nonpayable",
      "type": "function"
    },
    {
      "inputs": [
        {
          "internalType": "uint256",
          "name": "_amount",
          "type": "uint256"
        }
      ],
      "name": "withdraw",
      "outputs": [],
      "stateMutability": "nonpayable",
      "type": "function"
    },
    {
      "stateMutability": "payable",
      "type": "receive"
    },
    {
      "inputs": [
        {
          "internalType": "address",
          "name": "_address",
          "type": "address"
        }
      ],
      "name": "setPoapContractAddress",
      "outputs": [],
      "stateMutability": "nonpayable",
      "type": "function"
    },
    {
      "inputs": [
        {
          "internalType": "uint256",
          "name": "_shkolId",
          "type": "uint256"
        },
        {
          "internalType": "uint256",
          "name": "shkillId",
          "type": "uint256"
        },
        {
          "internalType": "string",
          "name": "_shkillType",
          "type": "string"
        }
      ],
      "name": "advanceShkill",
      "outputs": [],
      "stateMutability": "nonpayable",
      "type": "function"
    },
    {
      "inputs": [
        {
          "internalType": "uint256",
          "name": "_shkolId",
          "type": "uint256"
        },
        {
          "internalType": "uint256",
          "name": "_shkillId",
          "type": "uint256"
        }
      ],
      "name": "assignShkillToShkol",
      "outputs": [],
      "stateMutability": "nonpayable",
      "type": "function"
    },
    {
      "inputs": [
        {
          "internalType": "uint256",
          "name": "_shkolId",
          "type": "uint256"
        },
        {
          "internalType": "uint256",
          "name": "_shkillId",
          "type": "uint256"
        }
      ],
      "name": "levelUpShkill",
      "outputs": [],
      "stateMutability": "nonpayable",
      "type": "function"
    }
  ],
  "bytecode": "0x60806040526010600155600154600a6200001a9190620005fa565b60025562093a8060035534801562000030575f80fd5b5062000051620000456200006760201b60201c565b6200006e60201b60201c565b620000616200012f60201b60201c565b62000989565b5f33905090565b5f805f9054906101000a900473ffffffffffffffffffffffffffffffffffffffff169050815f806101000a81548173ffffffffffffffffffffffffffffffffffffffff021916908373ffffffffffffffffffffffffffffffffffffffff1602179055508173ffffffffffffffffffffffffffffffffffffffff168173ffffffffffffffffffffffffffffffffffffffff167f8be0079c531659141344cd1fd0a4f28419497f9722a3daafe3b4186f6b6457e060405160405180910390a35050565b620001776040518060400160405280600681526020017f417274697374000000000000000000000000000000000000000000000000000081525060086200040160201b60201c565b620001bf6040518060400160405280600481526020017f436f6f6b0000000000000000000000000000000000000000000000000000000081525060076200040160201b60201c565b620002076040518060400160405280600881526020017f48616e64796d616e00000000000000000000000000000000000000000000000081525060076200040160201b60201c565b6200024f6040518060400160405280600681526020017f446f63746f72000000000000000000000000000000000000000000000000000081525060096200040160201b60201c565b620002976040518060400160405280600981526020017f50726f666573736f72000000000000000000000000000000000000000000000081525060086200040160201b60201c565b620002df6040518060400160405280600681526020017f4c6177796572000000000000000000000000000000000000000000000000000081525060076200040160201b60201c565b620003276040518060400160405280600881526020017f44657369676e657200000000000000000000000000000000000000000000000081525060076200040160201b60201c565b6200036f6040518060400160405280600a81526020017f50726f6772616d6d65720000000000000000000000000000000000000000000081525060086200040160201b60201c565b620003b76040518060400160405280600881526020017f4d7573696369616e00000000000000000000000000000000000000000000000081525060086200040160201b60201c565b620003ff6040518060400160405280600781526020017f4174686c6574650000000000000000000000000000000000000000000000000081525060086200040160201b60201c565b565b600760405180606001604052808481526020015f815260200183815250908060018154018082558091505060019003905f5260205f2090600302015f909190919091505f820151815f019081620004599190620008a5565b50602082015181600101556040820151816002015550505050565b7f4e487b71000000000000000000000000000000000000000000000000000000005f52601160045260245ffd5b5f8160011c9050919050565b5f808291508390505b6001851115620004fe57808604811115620004d657620004d562000474565b5b6001851615620004e65780820291505b8081029050620004f685620004a1565b9450620004b6565b94509492505050565b5f82620005185760019050620005ea565b8162000527575f9050620005ea565b81600181146200054057600281146200054b5762000581565b6001915050620005ea565b60ff84111562000560576200055f62000474565b5b8360020a9150848211156200057a576200057962000474565b5b50620005ea565b5060208310610133831016604e8410600b8410161715620005bb5782820a905083811115620005b557620005b462000474565b5b620005ea565b620005ca8484846001620004ad565b92509050818404811115620005e457620005e362000474565b5b81810290505b9392505050565b5f819050919050565b5f6200060682620005f1565b91506200061383620005f1565b9250620006427fffffffffffffffffffffffffffffffffffffffffffffffffffffffffffffffff848462000507565b905092915050565b5f81519050919050565b7f4e487b71000000000000000000000000000000000000000000000000000000005f52604160045260245ffd5b7f4e487b71000000000000000000000000000000000000000000000000000000005f52602260045260245ffd5b5f6002820490506001821680620006c657607f821691505b602082108103620006dc57620006db62000681565b5b50919050565b5f819050815f5260205f209050919050565b5f6020601f8301049050919050565b5f82821b905092915050565b5f60088302620007407fffffffffffffffffffffffffffffffffffffffffffffffffffffffffffffffff8262000703565b6200074c868362000703565b95508019841693508086168417925050509392505050565b5f819050919050565b5f6200078d620007876200078184620005f1565b62000764565b620005f1565b9050919050565b5f819050919050565b620007a8836200076d565b620007c0620007b78262000794565b8484546200070f565b825550505050565b5f90565b620007d6620007c8565b620007e38184846200079d565b505050565b5b818110156200080a57620007fe5f82620007cc565b600181019050620007e9565b5050565b601f82111562000859576200082381620006e2565b6200082e84620006f4565b810160208510156200083e578190505b620008566200084d85620006f4565b830182620007e8565b50505b505050565b5f82821c905092915050565b5f6200087b5f19846008026200085e565b1980831691505092915050565b5f6200089583836200086a565b9150826002028217905092915050565b620008b0826200064a565b67ffffffffffffffff811115620008cc57620008cb62000654565b5b620008d88254620006ae565b620008e58282856200080e565b5f60209050601f8311600181146200091b575f841562000906578287015190505b62000912858262000888565b86555062000981565b601f1984166200092b86620006e2565b5f5b8281101562000954578489015182556001820191506020850194506020810190506200092d565b8683101562000974578489015162000970601f8916826200086a565b8355505b6001600288020188555050505b505050505050565b6125ae80620009975f395ff3fe60806040526004361061010c575f3560e01c80638da5cb5b11610094578063b3ff9cb311610063578063b3ff9cb3146103b1578063d42fd4ca146103d9578063e73ff1261461041a578063f2fde38b14610458578063fdfedc361461048057610161565b80638da5cb5b146102f95780638f649a9f14610323578063a58a21f81461035f578063b17669c11461038957610161565b8063634d8b9f116100db578063634d8b9f1461022d57806366867b4b14610255578063715018a61461027d57806372d3fd4a1461029357806382cb7c70146102d157610161565b806309b6f7a914610165578063105b45c91461018d5780632e1a7d4d146101c957806332680efe146101f157610161565b36610161573373ffffffffffffffffffffffffffffffffffffffff167fe1fffcc4923d04b559f4d29a8bfc6cda04eb5b0d3c460751c2402c5c5cc9109c3460405161015791906115a1565b60405180910390a2005b5f80fd5b348015610170575f80fd5b5061018b600480360381019061018691906115f5565b610496565b005b348015610198575f80fd5b506101b360048036038101906101ae9190611633565b6105fb565b6040516101c0919061169d565b60405180910390f35b3480156101d4575f80fd5b506101ef60048036038101906101ea9190611633565b61062b565b005b3480156101fc575f80fd5b50610217600480360381019061021291906116e0565b61083b565b60405161022491906115a1565b60405180910390f35b348015610238575f80fd5b50610253600480360381019061024e91906116e0565b610850565b005b348015610260575f80fd5b5061027b600480360381019061027691906115f5565b61089b565b005b348015610288575f80fd5b50610291610a05565b005b34801561029e575f80fd5b506102b960048036038101906102b49190611633565b610a18565b6040516102c893929190611795565b60405180910390f35b3480156102dc575f80fd5b506102f760048036038101906102f291906118fd565b610ad3565b005b348015610304575f80fd5b5061030d610ae9565b60405161031a919061169d565b60405180910390f35b34801561032e575f80fd5b50610349600480360381019061034491906115f5565b610b10565b60405161035691906115a1565b60405180910390f35b34801561036a575f80fd5b50610373610b30565b60405161038091906115a1565b60405180910390f35b348015610394575f80fd5b506103af60048036038101906103aa9190611957565b610b3c565b005b3480156103bc575f80fd5b506103d760048036038101906103d291906119c3565b610cdf565b005b3480156103e4575f80fd5b506103ff60048036038101906103fa9190611633565b610d5b565b60405161041196959493929190611a44565b60405180910390f35b348015610425575f80fd5b50610440600480360381019061043b91906115f5565b610e63565b60405161044f93929190611795565b60405180910390f35b348015610463575f80fd5b5061047e600480360381019061047991906116e0565b610f29565b005b34801561048b575f80fd5b50610494610fab565b005b813373ffffffffffffffffffffffffffffffffffffffff1660055f8381526020019081526020015f205f9054906101000a900473ffffffffffffffffffffffffffffffffffffffff1673ffffffffffffffffffffffffffffffffffffffff16146104fe575f80fd5b6007805490508210610545576040517f08c379a000000000000000000000000000000000000000000000000000000000815260040161053c90611af4565b60405180910390fd5b6105796001600a5f8681526020019081526020015f205f8581526020019081526020015f2054610fc290919063ffffffff16565b600a5f8581526020019081526020015f205f8481526020019081526020015f208190555081837f3273c8eae37590353bbb6859a87767429b1ccb2830f9dddac51f8560065e01b4600a5f8781526020019081526020015f205f8681526020019081526020015f20546040516105ee91906115a1565b60405180910390a3505050565b6005602052805f5260405f205f915054906101000a900473ffffffffffffffffffffffffffffffffffffffff1681565b610633610fd7565b5f60149054906101000a900460ff1615610682576040517f08c379a000000000000000000000000000000000000000000000000000000000815260040161067990611b5c565b60405180910390fd5b60015f60146101000a81548160ff0219169083151502179055505f81116106de576040517f08c379a00000000000000000000000000000000000000000000000000000000081526004016106d590611bea565b60405180910390fd5b47811115610721576040517f08c379a000000000000000000000000000000000000000000000000000000000815260040161071890611c52565b60405180910390fd5b5f61072a610ae9565b73ffffffffffffffffffffffffffffffffffffffff168260405161074d90611c9d565b5f6040518083038185875af1925050503d805f8114610787576040519150601f19603f3d011682016040523d82523d5f602084013e61078c565b606091505b50509050806107d0576040517f08c379a00000000000000000000000000000000000000000000000000000000081526004016107c790611cfb565b60405180910390fd5b3373ffffffffffffffffffffffffffffffffffffffff167f7fcf532c15f0a6db0bd6d0e038bea71d30d808c7d98cb3bf7268a95bf5081b658360405161081691906115a1565b60405180910390a2505f8060146101000a81548160ff02191690831515021790555050565b6006602052805f5260405f205f915090505481565b610858610fd7565b80600b5f6101000a81548173ffffffffffffffffffffffffffffffffffffffff021916908373ffffffffffffffffffffffffffffffffffffffff16021790555050565b813373ffffffffffffffffffffffffffffffffffffffff1660055f8381526020019081526020015f205f9054906101000a900473ffffffffffffffffffffffffffffffffffffffff1673ffffffffffffffffffffffffffffffffffffffff1614610903575f80fd5b600780549050821061094a576040517f08c379a000000000000000000000000000000000000000000000000000000000815260040161094190611af4565b60405180910390fd5b5f600a5f8581526020019081526020015f205f8481526020019081526020015f2054146109ac576040517f08c379a00000000000000000000000000000000000000000000000000000000081526004016109a390611d63565b60405180910390fd5b6001600a5f8581526020019081526020015f205f8481526020019081526020015f208190555081837fc4aeea26b51df0adcfc679f3fb3b15f0f14cb455d09a30b27fad1ecd3720c7d260405160405180910390a3505050565b610a0d610fd7565b610a165f611055565b565b60078181548110610a27575f80fd5b905f5260205f2090600302015f91509050805f018054610a4690611dae565b80601f0160208091040260200160405190810160405280929190818152602001828054610a7290611dae565b8015610abd5780601f10610a9457610100808354040283529160200191610abd565b820191905f5260205f20905b815481529060010190602001808311610aa057829003601f168201915b5050505050908060010154908060020154905083565b610adb610fd7565b610ae58282611116565b5050565b5f805f9054906101000a900473ffffffffffffffffffffffffffffffffffffffff16905090565b600a602052815f5260405f20602052805f5260405f205f91509150505481565b5f600780549050905090565b823373ffffffffffffffffffffffffffffffffffffffff1660055f8381526020019081526020015f205f9054906101000a900473ffffffffffffffffffffffffffffffffffffffff1673ffffffffffffffffffffffffffffffffffffffff1614610ba4575f80fd5b5f60048581548110610bb957610bb8611dde565b5b905f5260205f2090600302019050610bd081611187565b610bd8575f80fd5b5f60025485610be79190611e38565b90505f610c146002610c06848660010154610fc290919063ffffffff16565b6111ad90919063ffffffff16565b9050604051602001610c2590611ebc565b6040516020818303038152906040528051906020012085604051602001610c4c9190611f00565b6040516020818303038152906040528051906020012003610c8e576063606482610c769190611e38565b82610c819190611f43565b610c8b9190611f76565b90505b610ccd6040518060400160405280600b81526020017f4e6f4e616d6553686b6f6c000000000000000000000000000000000000000000815250826111c2565b610cd6836113e1565b50505050505050565b5f60065f3373ffffffffffffffffffffffffffffffffffffffff1673ffffffffffffffffffffffffffffffffffffffff1681526020019081526020015f205414610d27575f80fd5b5f610d3182611414565b9050606481610d409190611e38565b81610d4b9190611f43565b9050610d5782826111c2565b5050565b60048181548110610d6a575f80fd5b905f5260205f2090600302015f91509050805f018054610d8990611dae565b80601f0160208091040260200160405190810160405280929190818152602001828054610db590611dae565b8015610e005780601f10610dd757610100808354040283529160200191610e00565b820191905f5260205f20905b815481529060010190602001808311610de357829003601f168201915b505050505090806001015490806002015f9054906101000a900463ffffffff16908060020160049054906101000a900463ffffffff16908060020160089054906101000a900461ffff169080600201600a9054906101000a900461ffff16905086565b6008602052815f5260405f208181548110610e7c575f80fd5b905f5260205f2090600302015f9150915050805f018054610e9c90611dae565b80601f0160208091040260200160405190810160405280929190818152602001828054610ec890611dae565b8015610f135780601f10610eea57610100808354040283529160200191610f13565b820191905f5260205f20905b815481529060010190602001808311610ef657829003601f168201915b5050505050908060010154908060020154905083565b610f31610fd7565b5f73ffffffffffffffffffffffffffffffffffffffff168173ffffffffffffffffffffffffffffffffffffffff1603610f9f576040517f08c379a0000000000000000000000000000000000000000000000000000000008152600401610f9690612019565b60405180910390fd5b610fa881611055565b50565b610fb3610fd7565b60075f610fc091906114dd565b565b5f8183610fcf9190611f76565b905092915050565b610fdf6114a5565b73ffffffffffffffffffffffffffffffffffffffff16610ffd610ae9565b73ffffffffffffffffffffffffffffffffffffffff1614611053576040517f08c379a000000000000000000000000000000000000000000000000000000000815260040161104a90612081565b60405180910390fd5b565b5f805f9054906101000a900473ffffffffffffffffffffffffffffffffffffffff169050815f806101000a81548173ffffffffffffffffffffffffffffffffffffffff021916908373ffffffffffffffffffffffffffffffffffffffff1602179055508173ffffffffffffffffffffffffffffffffffffffff168173ffffffffffffffffffffffffffffffffffffffff167f8be0079c531659141344cd1fd0a4f28419497f9722a3daafe3b4186f6b6457e060405160405180910390a35050565b600760405180606001604052808481526020015f815260200183815250908060018154018082558091505060019003905f5260205f2090600302015f909190919091505f820151815f01908161116c919061223c565b50602082015181600101556040820151816002015550505050565b5f428260020160049054906101000a900463ffffffff1663ffffffff1611159050919050565b5f81836111ba919061230b565b905092915050565b60046040518060c00160405280848152602001838152602001600354426111e99190611f76565b63ffffffff1681526020015f63ffffffff1681526020015f61ffff1681526020015f61ffff16815250908060018154018082558091505060019003905f5260205f2090600302015f909190919091505f820151815f01908161124b919061223c565b50602082015181600101556040820151816002015f6101000a81548163ffffffff021916908363ffffffff16021790555060608201518160020160046101000a81548163ffffffff021916908363ffffffff16021790555060808201518160020160086101000a81548161ffff021916908361ffff16021790555060a082015181600201600a6101000a81548161ffff021916908361ffff16021790555050505f60016004805490506112fe9190611f43565b90503360055f8381526020019081526020015f205f6101000a81548173ffffffffffffffffffffffffffffffffffffffff021916908373ffffffffffffffffffffffffffffffffffffffff16021790555060065f3373ffffffffffffffffffffffffffffffffffffffff1673ffffffffffffffffffffffffffffffffffffffff1681526020019081526020015f205f81548092919061139c9061233b565b91905055507f725dc5868eeb42945cc94de22c1b3fcdac104c704231bf0e550d9febda7ab4878184336040516113d493929190612382565b60405180910390a1505050565b600354426113ef9190611f76565b8160020160046101000a81548163ffffffff021916908363ffffffff16021790555050565b5f80826040516020016114279190611f00565b604051602081830303815290604052805190602001205f1c90506002548161144f9190611e38565b90505f600161145d836114ac565b6114679190611f76565b6001546114749190611f43565b90508181600a61148491906124ed565b61148e9190612537565b826114999190611f76565b91508192505050919050565b5f33905090565b5f5b600a82106114d857600a826114c3919061230b565b915080806114d09061233b565b9150506114ae565b919050565b5080545f8255600302905f5260205f20908101906114fb91906114fe565b50565b5b8082111561152d575f8082015f6115169190611531565b600182015f9055600282015f9055506003016114ff565b5090565b50805461153d90611dae565b5f825580601f1061154e575061156b565b601f0160209004905f5260205f209081019061156a919061156e565b5b50565b5b80821115611585575f815f90555060010161156f565b5090565b5f819050919050565b61159b81611589565b82525050565b5f6020820190506115b45f830184611592565b92915050565b5f604051905090565b5f80fd5b5f80fd5b6115d481611589565b81146115de575f80fd5b50565b5f813590506115ef816115cb565b92915050565b5f806040838503121561160b5761160a6115c3565b5b5f611618858286016115e1565b9250506020611629858286016115e1565b9150509250929050565b5f60208284031215611648576116476115c3565b5b5f611655848285016115e1565b91505092915050565b5f73ffffffffffffffffffffffffffffffffffffffff82169050919050565b5f6116878261165e565b9050919050565b6116978161167d565b82525050565b5f6020820190506116b05f83018461168e565b92915050565b6116bf8161167d565b81146116c9575f80fd5b50565b5f813590506116da816116b6565b92915050565b5f602082840312156116f5576116f46115c3565b5b5f611702848285016116cc565b91505092915050565b5f81519050919050565b5f82825260208201905092915050565b5f5b83811015611742578082015181840152602081019050611727565b5f8484015250505050565b5f601f19601f8301169050919050565b5f6117678261170b565b6117718185611715565b9350611781818560208601611725565b61178a8161174d565b840191505092915050565b5f6060820190508181035f8301526117ad818661175d565b90506117bc6020830185611592565b6117c96040830184611592565b949350505050565b5f80fd5b5f80fd5b7f4e487b71000000000000000000000000000000000000000000000000000000005f52604160045260245ffd5b61180f8261174d565b810181811067ffffffffffffffff8211171561182e5761182d6117d9565b5b80604052505050565b5f6118406115ba565b905061184c8282611806565b919050565b5f67ffffffffffffffff82111561186b5761186a6117d9565b5b6118748261174d565b9050602081019050919050565b828183375f83830152505050565b5f6118a161189c84611851565b611837565b9050828152602081018484840111156118bd576118bc6117d5565b5b6118c8848285611881565b509392505050565b5f82601f8301126118e4576118e36117d1565b5b81356118f484826020860161188f565b91505092915050565b5f8060408385031215611913576119126115c3565b5b5f83013567ffffffffffffffff8111156119305761192f6115c7565b5b61193c858286016118d0565b925050602061194d858286016115e1565b9150509250929050565b5f805f6060848603121561196e5761196d6115c3565b5b5f61197b868287016115e1565b935050602061198c868287016115e1565b925050604084013567ffffffffffffffff8111156119ad576119ac6115c7565b5b6119b9868287016118d0565b9150509250925092565b5f602082840312156119d8576119d76115c3565b5b5f82013567ffffffffffffffff8111156119f5576119f46115c7565b5b611a01848285016118d0565b91505092915050565b5f63ffffffff82169050919050565b611a2281611a0a565b82525050565b5f61ffff82169050919050565b611a3e81611a28565b82525050565b5f60c0820190508181035f830152611a5c818961175d565b9050611a6b6020830188611592565b611a786040830187611a19565b611a856060830186611a19565b611a926080830185611a35565b611a9f60a0830184611a35565b979650505050505050565b7f53686b696c6c20646f6573206e6f7420657869737400000000000000000000005f82015250565b5f611ade601583611715565b9150611ae982611aaa565b602082019050919050565b5f6020820190508181035f830152611b0b81611ad2565b9050919050565b7f5265656e7472616e742063616c6c0000000000000000000000000000000000005f82015250565b5f611b46600e83611715565b9150611b5182611b12565b602082019050919050565b5f6020820190508181035f830152611b7381611b3a565b9050919050565b7f5769746864726177616c20616d6f756e74206d757374206265206772656174655f8201527f72207468616e2030000000000000000000000000000000000000000000000000602082015250565b5f611bd4602883611715565b9150611bdf82611b7a565b604082019050919050565b5f6020820190508181035f830152611c0181611bc8565b9050919050565b7f496e73756666696369656e7420636f6e74726163742062616c616e63650000005f82015250565b5f611c3c601d83611715565b9150611c4782611c08565b602082019050919050565b5f6020820190508181035f830152611c6981611c30565b9050919050565b5f81905092915050565b50565b5f611c885f83611c70565b9150611c9382611c7a565b5f82019050919050565b5f611ca782611c7d565b9150819050919050565b7f5769746864726177616c206661696c65640000000000000000000000000000005f82015250565b5f611ce5601183611715565b9150611cf082611cb1565b602082019050919050565b5f6020820190508181035f830152611d1281611cd9565b9050919050565b7f53686b696c6c20616c72656164792061737369676e65640000000000000000005f82015250565b5f611d4d601783611715565b9150611d5882611d19565b602082019050919050565b5f6020820190508181035f830152611d7a81611d41565b9050919050565b7f4e487b71000000000000000000000000000000000000000000000000000000005f52602260045260245ffd5b5f6002820490506001821680611dc557607f821691505b602082108103611dd857611dd7611d81565b5b50919050565b7f4e487b71000000000000000000000000000000000000000000000000000000005f52603260045260245ffd5b7f4e487b71000000000000000000000000000000000000000000000000000000005f52601260045260245ffd5b5f611e4282611589565b9150611e4d83611589565b925082611e5d57611e5c611e0b565b5b828206905092915050565b5f81905092915050565b7f64657369676e65720000000000000000000000000000000000000000000000005f82015250565b5f611ea6600883611e68565b9150611eb182611e72565b600882019050919050565b5f611ec682611e9a565b9150819050919050565b5f611eda8261170b565b611ee48185611e68565b9350611ef4818560208601611725565b80840191505092915050565b5f611f0b8284611ed0565b915081905092915050565b7f4e487b71000000000000000000000000000000000000000000000000000000005f52601160045260245ffd5b5f611f4d82611589565b9150611f5883611589565b9250828203905081811115611f7057611f6f611f16565b5b92915050565b5f611f8082611589565b9150611f8b83611589565b9250828201905080821115611fa357611fa2611f16565b5b92915050565b7f4f776e61626c653a206e6577206f776e657220697320746865207a65726f20615f8201527f6464726573730000000000000000000000000000000000000000000000000000602082015250565b5f612003602683611715565b915061200e82611fa9565b604082019050919050565b5f6020820190508181035f83015261203081611ff7565b9050919050565b7f4f776e61626c653a2063616c6c6572206973206e6f7420746865206f776e65725f82015250565b5f61206b602083611715565b915061207682612037565b602082019050919050565b5f6020820190508181035f8301526120988161205f565b9050919050565b5f819050815f5260205f209050919050565b5f6020601f8301049050919050565b5f82821b905092915050565b5f600883026120fb7fffffffffffffffffffffffffffffffffffffffffffffffffffffffffffffffff826120c0565b61210586836120c0565b95508019841693508086168417925050509392505050565b5f819050919050565b5f61214061213b61213684611589565b61211d565b611589565b9050919050565b5f819050919050565b61215983612126565b61216d61216582612147565b8484546120cc565b825550505050565b5f90565b612181612175565b61218c818484612150565b505050565b5b818110156121af576121a45f82612179565b600181019050612192565b5050565b601f8211156121f4576121c58161209f565b6121ce846120b1565b810160208510156121dd578190505b6121f16121e9856120b1565b830182612191565b50505b505050565b5f82821c905092915050565b5f6122145f19846008026121f9565b1980831691505092915050565b5f61222c8383612205565b9150826002028217905092915050565b6122458261170b565b67ffffffffffffffff81111561225e5761225d6117d9565b5b6122688254611dae565b6122738282856121b3565b5f60209050601f8311600181146122a4575f8415612292578287015190505b61229c8582612221565b865550612303565b601f1984166122b28661209f565b5f5b828110156122d9578489015182556001820191506020850194506020810190506122b4565b868310156122f657848901516122f2601f891682612205565b8355505b6001600288020188555050505b505050505050565b5f61231582611589565b915061232083611589565b9250826123305761232f611e0b565b5b828204905092915050565b5f61234582611589565b91507fffffffffffffffffffffffffffffffffffffffffffffffffffffffffffffffff820361237757612376611f16565b5b600182019050919050565b5f6060820190506123955f830186611592565b81810360208301526123a7818561175d565b90506123b6604083018461168e565b949350505050565b5f8160011c9050919050565b5f808291508390505b6001851115612413578086048111156123ef576123ee611f16565b5b60018516156123fe5780820291505b808102905061240c856123be565b94506123d3565b94509492505050565b5f8261242b57600190506124e6565b81612438575f90506124e6565b816001811461244e576002811461245857612487565b60019150506124e6565b60ff84111561246a57612469611f16565b5b8360020a91508482111561248157612480611f16565b5b506124e6565b5060208310610133831016604e8410600b84101617156124bc5782820a9050838111156124b7576124b6611f16565b5b6124e6565b6124c984848460016123ca565b925090508184048111156124e0576124df611f16565b5b81810290505b9392505050565b5f6124f782611589565b915061250283611589565b925061252f7fffffffffffffffffffffffffffffffffffffffffffffffffffffffffffffffff848461241c565b905092915050565b5f61254182611589565b915061254c83611589565b925082820261255a81611589565b9150828204841483151761257157612570611f16565b5b509291505056fea264697066735822122071d7f3730c23bedc591555001de2d33a282e7c9aa004e649dedd7350c778977164736f6c63430008140033",
  "immutableReferences": {},
  "source": "// SPDX-License-Identifier: MIT\npragma solidity ^0.8.0;\n\nimport {ShkolFactory} from \"./ShkolFactory.sol\";\nimport {SafeMath} from \"@openzeppelin/contracts/utils/math/SafeMath.sol\";\n\ncontract PoapInterface {\n    //todo develop poap interface\n    //function mintPoap()\n}\n\ncontract ShkolDevelopment is ShkolFactory {\n    using SafeMath for uint;\n\n    event ShkillAssigned(uint indexed shkolId, uint indexed shkillId);\n    event ShkillLeveledUp(\n        uint indexed shkolId,\n        uint indexed shkillId,\n        uint newLevel\n    );\n\n    PoapInterface poapContract;\n\n    modifier onlyOwnerOf(uint _shkolId) {\n        require(shkolToOwner[_shkolId] == msg.sender);\n        _;\n    }\n\n    function setPoapContractAddress(address _address) external onlyOwner {\n        poapContract = PoapInterface(_address);\n    }\n\n    function _triggerShkolCooldown(Shkol storage _shkol) internal {\n        _shkol.readyTime = uint32(block.timestamp + cooldownTime);\n    }\n\n    function _isReady(Shkol storage _shkol) internal view returns (bool) {\n        return (_shkol.readyTime <= block.timestamp);\n    }\n\n    function advanceShkill(\n        uint _shkolId,\n        uint shkillId,\n        string memory _shkillType\n    ) public onlyOwnerOf(_shkolId) {\n        Shkol storage myShkol = shkolz[_shkolId];\n        require(_isReady(myShkol));\n        uint targetDna = shkillId % dnaModulus;\n        uint newDna = (myShkol.dna.add(targetDna)).div(2);\n\n        if (\n            keccak256(abi.encodePacked(_shkillType)) ==\n            keccak256(abi.encodePacked(\"designer\"))\n        ) {\n            newDna = newDna - (newDna % 100) + 99;\n        }\n        _createShkol(\"NoNameShkol\", newDna);\n        _triggerShkolCooldown(myShkol);\n    }\n\n    function assignShkillToShkol(\n        uint _shkolId,\n        uint _shkillId\n    ) public onlyOwnerOf(_shkolId) {\n        require(_shkillId < shkillz.length, \"Shkill does not exist\");\n        require(\n            shkolIdToShkillLevel[_shkolId][_shkillId] == 0,\n            \"Shkill already assigned\"\n        );\n        shkolIdToShkillLevel[_shkolId][_shkillId] = 1;\n        emit ShkillAssigned(_shkolId, _shkillId);\n    }\n\n    function levelUpShkill(\n        uint _shkolId,\n        uint _shkillId\n    ) public onlyOwnerOf(_shkolId) {\n        require(_shkillId < shkillz.length, \"Shkill does not exist\");\n        shkolIdToShkillLevel[_shkolId][_shkillId] = shkolIdToShkillLevel[\n            _shkolId\n        ][_shkillId].add(1);\n        emit ShkillLeveledUp(\n            _shkolId,\n            _shkillId,\n            shkolIdToShkillLevel[_shkolId][_shkillId]\n        );\n    }\n}\n",
  "sourcePath": "/Users/iri369/code/openzep/shkolz/contracts/ShkolDevelopment.sol",
  "compiler": {
    "name": "solc",
    "version": "0.8.20+commit.a1b79de6.Emscripten.clang"
  },
  "schemaVersion": "3.4.14",
  "updatedAt": "2023-07-28T14:42:46.907Z",
  "devdoc": {
    "kind": "dev",
    "methods": {
      "owner()": {
        "details": "Returns the address of the current owner."
      },
      "renounceOwnership()": {
        "details": "Leaves the contract without owner. It will not be possible to call `onlyOwner` functions. Can only be called by the current owner. NOTE: Renouncing ownership will leave the contract without an owner, thereby disabling any functionality that is only available to the owner."
      },
      "transferOwnership(address)": {
        "details": "Transfers ownership of the contract to a new account (`newOwner`). Can only be called by the current owner."
      }
    },
    "version": 1
  },
  "userdoc": {
    "kind": "user",
    "methods": {},
    "version": 1
  }
}