{
  "contractName": "ShkolOwnership",
  "abi": [
    {
      "inputs": [],
      "stateMutability": "nonpayable",
      "type": "constructor"
    },
    {
      "anonymous": false,
      "inputs": [
        {
          "indexed": true,
          "internalType": "address",
          "name": "owner",
          "type": "address"
        },
        {
          "indexed": true,
          "internalType": "address",
          "name": "approved",
          "type": "address"
        },
        {
          "indexed": true,
          "internalType": "uint256",
          "name": "tokenId",
          "type": "uint256"
        }
      ],
      "name": "Approval",
      "type": "event"
    },
    {
      "anonymous": false,
      "inputs": [
        {
          "indexed": true,
          "internalType": "address",
          "name": "owner",
          "type": "address"
        },
        {
          "indexed": true,
          "internalType": "address",
          "name": "operator",
          "type": "address"
        },
        {
          "indexed": false,
          "internalType": "bool",
          "name": "approved",
          "type": "bool"
        }
      ],
      "name": "ApprovalForAll",
      "type": "event"
    },
    {
      "anonymous": false,
      "inputs": [
        {
          "indexed": true,
          "internalType": "address",
          "name": "account",
          "type": "address"
        },
        {
          "indexed": false,
          "internalType": "uint256",
          "name": "amount",
          "type": "uint256"
        }
      ],
      "name": "Deposit",
      "type": "event"
    },
    {
      "anonymous": false,
      "inputs": [
        {
          "indexed": false,
          "internalType": "uint256",
          "name": "shkolId",
          "type": "uint256"
        },
        {
          "indexed": false,
          "internalType": "string",
          "name": "name",
          "type": "string"
        },
        {
          "indexed": false,
          "internalType": "address",
          "name": "owner",
          "type": "address"
        }
      ],
      "name": "NewShkol",
      "type": "event"
    },
    {
      "anonymous": false,
      "inputs": [
        {
          "indexed": true,
          "internalType": "address",
          "name": "previousOwner",
          "type": "address"
        },
        {
          "indexed": true,
          "internalType": "address",
          "name": "newOwner",
          "type": "address"
        }
      ],
      "name": "OwnershipTransferred",
      "type": "event"
    },
    {
      "anonymous": false,
      "inputs": [
        {
          "indexed": true,
          "internalType": "uint256",
          "name": "shkolId",
          "type": "uint256"
        },
        {
          "indexed": true,
          "internalType": "uint256",
          "name": "shkillId",
          "type": "uint256"
        }
      ],
      "name": "ShkillAssigned",
      "type": "event"
    },
    {
      "anonymous": false,
      "inputs": [
        {
          "indexed": true,
          "internalType": "uint256",
          "name": "shkolId",
          "type": "uint256"
        },
        {
          "indexed": true,
          "internalType": "uint256",
          "name": "shkillId",
          "type": "uint256"
        },
        {
          "indexed": false,
          "internalType": "uint256",
          "name": "newLevel",
          "type": "uint256"
        }
      ],
      "name": "ShkillLeveledUp",
      "type": "event"
    },
    {
      "anonymous": false,
      "inputs": [
        {
          "indexed": true,
          "internalType": "address",
          "name": "from",
          "type": "address"
        },
        {
          "indexed": true,
          "internalType": "address",
          "name": "to",
          "type": "address"
        },
        {
          "indexed": true,
          "internalType": "uint256",
          "name": "tokenId",
          "type": "uint256"
        }
      ],
      "name": "Transfer",
      "type": "event"
    },
    {
      "anonymous": false,
      "inputs": [
        {
          "indexed": true,
          "internalType": "address",
          "name": "account",
          "type": "address"
        },
        {
          "indexed": false,
          "internalType": "uint256",
          "name": "amount",
          "type": "uint256"
        }
      ],
      "name": "Withdrawal",
      "type": "event"
    },
    {
      "inputs": [
        {
          "internalType": "string",
          "name": "_name",
          "type": "string"
        },
        {
          "internalType": "uint256",
          "name": "_complexity",
          "type": "uint256"
        }
      ],
      "name": "addShkill",
      "outputs": [],
      "stateMutability": "nonpayable",
      "type": "function"
    },
    {
      "inputs": [
        {
          "internalType": "uint256",
          "name": "_shkolId",
          "type": "uint256"
        },
        {
          "internalType": "uint256",
          "name": "shkillId",
          "type": "uint256"
        },
        {
          "internalType": "string",
          "name": "_shkillType",
          "type": "string"
        }
      ],
      "name": "advanceShkill",
      "outputs": [],
      "stateMutability": "nonpayable",
      "type": "function"
    },
    {
      "inputs": [
        {
          "internalType": "address",
          "name": "to",
          "type": "address"
        },
        {
          "internalType": "uint256",
          "name": "tokenId",
          "type": "uint256"
        }
      ],
      "name": "approve",
      "outputs": [],
      "stateMutability": "nonpayable",
      "type": "function"
    },
    {
      "inputs": [
        {
          "internalType": "uint256",
          "name": "_shkolId",
          "type": "uint256"
        },
        {
          "internalType": "uint256",
          "name": "_shkillId",
          "type": "uint256"
        }
      ],
      "name": "assignShkillToShkol",
      "outputs": [],
      "stateMutability": "nonpayable",
      "type": "function"
    },
    {
      "inputs": [
        {
          "internalType": "address",
          "name": "owner",
          "type": "address"
        }
      ],
      "name": "balanceOf",
      "outputs": [
        {
          "internalType": "uint256",
          "name": "",
          "type": "uint256"
        }
      ],
      "stateMutability": "view",
      "type": "function"
    },
    {
      "inputs": [
        {
          "internalType": "uint256",
          "name": "_shkolId",
          "type": "uint256"
        },
        {
          "internalType": "uint256",
          "name": "_newDna",
          "type": "uint256"
        }
      ],
      "name": "changeDna",
      "outputs": [],
      "stateMutability": "payable",
      "type": "function"
    },
    {
      "inputs": [
        {
          "internalType": "uint256",
          "name": "_shkolId",
          "type": "uint256"
        },
        {
          "internalType": "string",
          "name": "_newName",
          "type": "string"
        }
      ],
      "name": "changeName",
      "outputs": [],
      "stateMutability": "nonpayable",
      "type": "function"
    },
    {
      "inputs": [],
      "name": "clearShkillz",
      "outputs": [],
      "stateMutability": "nonpayable",
      "type": "function"
    },
    {
      "inputs": [
        {
          "internalType": "string",
          "name": "_name",
          "type": "string"
        }
      ],
      "name": "createRandomShkol",
      "outputs": [],
      "stateMutability": "nonpayable",
      "type": "function"
    },
    {
      "inputs": [
        {
          "internalType": "uint256",
          "name": "tokenId",
          "type": "uint256"
        }
      ],
      "name": "getApproved",
      "outputs": [
        {
          "internalType": "address",
          "name": "",
          "type": "address"
        }
      ],
      "stateMutability": "view",
      "type": "function"
    },
    {
      "inputs": [],
      "name": "getLevelUpFee",
      "outputs": [
        {
          "internalType": "uint256",
          "name": "",
          "type": "uint256"
        }
      ],
      "stateMutability": "view",
      "type": "function"
    },
    {
      "inputs": [],
      "name": "getShkillzLength",
      "outputs": [
        {
          "internalType": "uint256",
          "name": "",
          "type": "uint256"
        }
      ],
      "stateMutability": "view",
      "type": "function"
    },
    {
      "inputs": [
        {
          "internalType": "address",
          "name": "_owner",
          "type": "address"
        }
      ],
      "name": "getShkolzByOwner",
      "outputs": [
        {
          "internalType": "uint256[]",
          "name": "",
          "type": "uint256[]"
        }
      ],
      "stateMutability": "view",
      "type": "function"
    },
    {
      "inputs": [],
      "name": "getValidationFee",
      "outputs": [
        {
          "internalType": "uint256",
          "name": "",
          "type": "uint256"
        }
      ],
      "stateMutability": "view",
      "type": "function"
    },
    {
      "inputs": [
        {
          "internalType": "address",
          "name": "owner",
          "type": "address"
        },
        {
          "internalType": "address",
          "name": "operator",
          "type": "address"
        }
      ],
      "name": "isApprovedForAll",
      "outputs": [
        {
          "internalType": "bool",
          "name": "",
          "type": "bool"
        }
      ],
      "stateMutability": "view",
      "type": "function"
    },
    {
      "inputs": [
        {
          "internalType": "uint256",
          "name": "_shkolId",
          "type": "uint256"
        }
      ],
      "name": "levelUp",
      "outputs": [],
      "stateMutability": "payable",
      "type": "function"
    },
    {
      "inputs": [
        {
          "internalType": "uint256",
          "name": "_shkolId",
          "type": "uint256"
        },
        {
          "internalType": "uint256",
          "name": "_shkillId",
          "type": "uint256"
        }
      ],
      "name": "levelUpShkill",
      "outputs": [],
      "stateMutability": "nonpayable",
      "type": "function"
    },
    {
      "inputs": [],
      "name": "name",
      "outputs": [
        {
          "internalType": "string",
          "name": "",
          "type": "string"
        }
      ],
      "stateMutability": "view",
      "type": "function"
    },
    {
      "inputs": [],
      "name": "owner",
      "outputs": [
        {
          "internalType": "address",
          "name": "",
          "type": "address"
        }
      ],
      "stateMutability": "view",
      "type": "function"
    },
    {
      "inputs": [
        {
          "internalType": "uint256",
          "name": "tokenId",
          "type": "uint256"
        }
      ],
      "name": "ownerOf",
      "outputs": [
        {
          "internalType": "address",
          "name": "",
          "type": "address"
        }
      ],
      "stateMutability": "view",
      "type": "function"
    },
    {
      "inputs": [
        {
          "internalType": "address",
          "name": "",
          "type": "address"
        }
      ],
      "name": "ownerShkolCount",
      "outputs": [
        {
          "internalType": "uint256",
          "name": "",
          "type": "uint256"
        }
      ],
      "stateMutability": "view",
      "type": "function"
    },
    {
      "inputs": [],
      "name": "renounceOwnership",
      "outputs": [],
      "stateMutability": "nonpayable",
      "type": "function"
    },
    {
      "inputs": [
        {
          "internalType": "address",
          "name": "from",
          "type": "address"
        },
        {
          "internalType": "address",
          "name": "to",
          "type": "address"
        },
        {
          "internalType": "uint256",
          "name": "tokenId",
          "type": "uint256"
        }
      ],
      "name": "safeTransferFrom",
      "outputs": [],
      "stateMutability": "nonpayable",
      "type": "function"
    },
    {
      "inputs": [
        {
          "internalType": "address",
          "name": "from",
          "type": "address"
        },
        {
          "internalType": "address",
          "name": "to",
          "type": "address"
        },
        {
          "internalType": "uint256",
          "name": "tokenId",
          "type": "uint256"
        },
        {
          "internalType": "bytes",
          "name": "data",
          "type": "bytes"
        }
      ],
      "name": "safeTransferFrom",
      "outputs": [],
      "stateMutability": "nonpayable",
      "type": "function"
    },
    {
      "inputs": [
        {
          "internalType": "address",
          "name": "operator",
          "type": "address"
        },
        {
          "internalType": "bool",
          "name": "approved",
          "type": "bool"
        }
      ],
      "name": "setApprovalForAll",
      "outputs": [],
      "stateMutability": "nonpayable",
      "type": "function"
    },
    {
      "inputs": [
        {
          "internalType": "uint256",
          "name": "_fee",
          "type": "uint256"
        }
      ],
      "name": "setLevelUpFee",
      "outputs": [],
      "stateMutability": "nonpayable",
      "type": "function"
    },
    {
      "inputs": [
        {
          "internalType": "address",
          "name": "_address",
          "type": "address"
        }
      ],
      "name": "setPoapContractAddress",
      "outputs": [],
      "stateMutability": "nonpayable",
      "type": "function"
    },
    {
      "inputs": [
        {
          "internalType": "uint256",
          "name": "_fee",
          "type": "uint256"
        }
      ],
      "name": "setValidationFee",
      "outputs": [],
      "stateMutability": "nonpayable",
      "type": "function"
    },
    {
      "inputs": [
        {
          "internalType": "uint256",
          "name": "",
          "type": "uint256"
        }
      ],
      "name": "shkillz",
      "outputs": [
        {
          "internalType": "string",
          "name": "name",
          "type": "string"
        },
        {
          "internalType": "uint256",
          "name": "level",
          "type": "uint256"
        },
        {
          "internalType": "uint256",
          "name": "complexityIndex",
          "type": "uint256"
        }
      ],
      "stateMutability": "view",
      "type": "function"
    },
    {
      "inputs": [
        {
          "internalType": "uint256",
          "name": "",
          "type": "uint256"
        },
        {
          "internalType": "uint256",
          "name": "",
          "type": "uint256"
        }
      ],
      "name": "shkolIdToShkillLevel",
      "outputs": [
        {
          "internalType": "uint256",
          "name": "",
          "type": "uint256"
        }
      ],
      "stateMutability": "view",
      "type": "function"
    },
    {
      "inputs": [
        {
          "internalType": "uint256",
          "name": "",
          "type": "uint256"
        }
      ],
      "name": "shkolToOwner",
      "outputs": [
        {
          "internalType": "address",
          "name": "",
          "type": "address"
        }
      ],
      "stateMutability": "view",
      "type": "function"
    },
    {
      "inputs": [
        {
          "internalType": "uint256",
          "name": "",
          "type": "uint256"
        },
        {
          "internalType": "uint256",
          "name": "",
          "type": "uint256"
        }
      ],
      "name": "shkolToShkills",
      "outputs": [
        {
          "internalType": "string",
          "name": "name",
          "type": "string"
        },
        {
          "internalType": "uint256",
          "name": "level",
          "type": "uint256"
        },
        {
          "internalType": "uint256",
          "name": "complexityIndex",
          "type": "uint256"
        }
      ],
      "stateMutability": "view",
      "type": "function"
    },
    {
      "inputs": [
        {
          "internalType": "uint256",
          "name": "",
          "type": "uint256"
        }
      ],
      "name": "shkolz",
      "outputs": [
        {
          "internalType": "string",
          "name": "name",
          "type": "string"
        },
        {
          "internalType": "uint256",
          "name": "dna",
          "type": "uint256"
        },
        {
          "internalType": "uint32",
          "name": "level",
          "type": "uint32"
        },
        {
          "internalType": "uint32",
          "name": "readyTime",
          "type": "uint32"
        },
        {
          "internalType": "uint16",
          "name": "winCount",
          "type": "uint16"
        },
        {
          "internalType": "uint16",
          "name": "lossCount",
          "type": "uint16"
        }
      ],
      "stateMutability": "view",
      "type": "function"
    },
    {
      "inputs": [
        {
          "internalType": "bytes4",
          "name": "interfaceId",
          "type": "bytes4"
        }
      ],
      "name": "supportsInterface",
      "outputs": [
        {
          "internalType": "bool",
          "name": "",
          "type": "bool"
        }
      ],
      "stateMutability": "view",
      "type": "function"
    },
    {
      "inputs": [],
      "name": "symbol",
      "outputs": [
        {
          "internalType": "string",
          "name": "",
          "type": "string"
        }
      ],
      "stateMutability": "view",
      "type": "function"
    },
    {
      "inputs": [
        {
          "internalType": "uint256",
          "name": "tokenId",
          "type": "uint256"
        }
      ],
      "name": "tokenURI",
      "outputs": [
        {
          "internalType": "string",
          "name": "",
          "type": "string"
        }
      ],
      "stateMutability": "view",
      "type": "function"
    },
    {
      "inputs": [
        {
          "internalType": "address",
          "name": "from",
          "type": "address"
        },
        {
          "internalType": "address",
          "name": "to",
          "type": "address"
        },
        {
          "internalType": "uint256",
          "name": "tokenId",
          "type": "uint256"
        }
      ],
      "name": "transferFrom",
      "outputs": [],
      "stateMutability": "nonpayable",
      "type": "function"
    },
    {
      "inputs": [
        {
          "internalType": "address",
          "name": "newOwner",
          "type": "address"
        }
      ],
      "name": "transferOwnership",
      "outputs": [],
      "stateMutability": "nonpayable",
      "type": "function"
    },
    {
      "inputs": [
        {
          "internalType": "uint256",
          "name": "_shkolId",
          "type": "uint256"
        },
        {
          "internalType": "uint256",
          "name": "_shkillId",
          "type": "uint256"
        }
      ],
      "name": "validateShkill",
      "outputs": [],
      "stateMutability": "payable",
      "type": "function"
    },
    {
      "inputs": [
        {
          "internalType": "uint256",
          "name": "_amount",
          "type": "uint256"
        }
      ],
      "name": "withdraw",
      "outputs": [],
      "stateMutability": "nonpayable",
      "type": "function"
    },
    {
      "inputs": [],
      "name": "withdraw",
      "outputs": [],
      "stateMutability": "payable",
      "type": "function"
    },
    {
      "stateMutability": "payable",
      "type": "receive"
    },
    {
      "inputs": [
        {
          "internalType": "address",
          "name": "to",
          "type": "address"
        },
        {
          "internalType": "string",
          "name": "name",
          "type": "string"
        },
        {
          "internalType": "uint256",
          "name": "dna",
          "type": "uint256"
        }
      ],
      "name": "mint",
      "outputs": [
        {
          "internalType": "uint256",
          "name": "",
          "type": "uint256"
        }
      ],
      "stateMutability": "nonpayable",
      "type": "function"
    },
    {
      "inputs": [
        {
          "internalType": "address",
          "name": "to",
          "type": "address"
        },
        {
          "internalType": "string",
          "name": "name",
          "type": "string"
        }
      ],
      "name": "mintRandom",
      "outputs": [
        {
          "internalType": "uint256",
          "name": "",
          "type": "uint256"
        }
      ],
      "stateMutability": "nonpayable",
      "type": "function"
    },
    {
      "inputs": [
        {
          "internalType": "uint256",
          "name": "tokenId",
          "type": "uint256"
        }
      ],
      "name": "burn",
      "outputs": [],
      "stateMutability": "nonpayable",
      "type": "function"
    },
    {
      "inputs": [],
      "name": "getShkolzCount",
      "outputs": [
        {
          "internalType": "uint256",
          "name": "",
          "type": "uint256"
        }
      ],
      "stateMutability": "view",
      "type": "function"
    }
  ],
  "bytecode": "0x60806040526010600155600154600a6200001a91906200069e565b60025562093a8060035564e8d4a51000600c5564174876e800600d5534801562000042575f80fd5b506040518060400160405280600681526020017f53686b6f6c7a00000000000000000000000000000000000000000000000000008152506040518060400160405280600381526020017f49544d0000000000000000000000000000000000000000000000000000000000815250620000cf620000c36200010b60201b60201c565b6200011260201b60201c565b620000df620001d360201b60201c565b81600e9081620000f0919062000949565b5080600f908162000102919062000949565b50505062000a2d565b5f33905090565b5f805f9054906101000a900473ffffffffffffffffffffffffffffffffffffffff169050815f806101000a81548173ffffffffffffffffffffffffffffffffffffffff021916908373ffffffffffffffffffffffffffffffffffffffff1602179055508173ffffffffffffffffffffffffffffffffffffffff168173ffffffffffffffffffffffffffffffffffffffff167f8be0079c531659141344cd1fd0a4f28419497f9722a3daafe3b4186f6b6457e060405160405180910390a35050565b6200021b6040518060400160405280600681526020017f41727469737400000000000000000000000000000000000000000000000000008152506008620004a560201b60201c565b620002636040518060400160405280600481526020017f436f6f6b000000000000000000000000000000000000000000000000000000008152506007620004a560201b60201c565b620002ab6040518060400160405280600881526020017f48616e64796d616e0000000000000000000000000000000000000000000000008152506007620004a560201b60201c565b620002f36040518060400160405280600681526020017f446f63746f7200000000000000000000000000000000000000000000000000008152506009620004a560201b60201c565b6200033b6040518060400160405280600981526020017f50726f666573736f7200000000000000000000000000000000000000000000008152506008620004a560201b60201c565b620003836040518060400160405280600681526020017f4c617779657200000000000000000000000000000000000000000000000000008152506007620004a560201b60201c565b620003cb6040518060400160405280600881526020017f44657369676e65720000000000000000000000000000000000000000000000008152506007620004a560201b60201c565b620004136040518060400160405280600a81526020017f50726f6772616d6d6572000000000000000000000000000000000000000000008152506008620004a560201b60201c565b6200045b6040518060400160405280600881526020017f4d7573696369616e0000000000000000000000000000000000000000000000008152506008620004a560201b60201c565b620004a36040518060400160405280600781526020017f4174686c657465000000000000000000000000000000000000000000000000008152506008620004a560201b60201c565b565b600760405180606001604052808481526020015f815260200183815250908060018154018082558091505060019003905f5260205f2090600302015f909190919091505f820151815f019081620004fd919062000949565b50602082015181600101556040820151816002015550505050565b7f4e487b71000000000000000000000000000000000000000000000000000000005f52601160045260245ffd5b5f8160011c9050919050565b5f808291508390505b6001851115620005a2578086048111156200057a576200057962000518565b5b60018516156200058a5780820291505b80810290506200059a8562000545565b94506200055a565b94509492505050565b5f82620005bc57600190506200068e565b81620005cb575f90506200068e565b8160018114620005e45760028114620005ef5762000625565b60019150506200068e565b60ff84111562000604576200060362000518565b5b8360020a9150848211156200061e576200061d62000518565b5b506200068e565b5060208310610133831016604e8410600b84101617156200065f5782820a90508381111562000659576200065862000518565b5b6200068e565b6200066e848484600162000551565b9250905081840481111562000688576200068762000518565b5b81810290505b9392505050565b5f819050919050565b5f620006aa8262000695565b9150620006b78362000695565b9250620006e67fffffffffffffffffffffffffffffffffffffffffffffffffffffffffffffffff8484620005ab565b905092915050565b5f81519050919050565b7f4e487b71000000000000000000000000000000000000000000000000000000005f52604160045260245ffd5b7f4e487b71000000000000000000000000000000000000000000000000000000005f52602260045260245ffd5b5f60028204905060018216806200076a57607f821691505b60208210810362000780576200077f62000725565b5b50919050565b5f819050815f5260205f209050919050565b5f6020601f8301049050919050565b5f82821b905092915050565b5f60088302620007e47fffffffffffffffffffffffffffffffffffffffffffffffffffffffffffffffff82620007a7565b620007f08683620007a7565b95508019841693508086168417925050509392505050565b5f819050919050565b5f620008316200082b620008258462000695565b62000808565b62000695565b9050919050565b5f819050919050565b6200084c8362000811565b620008646200085b8262000838565b848454620007b3565b825550505050565b5f90565b6200087a6200086c565b6200088781848462000841565b505050565b5b81811015620008ae57620008a25f8262000870565b6001810190506200088d565b5050565b601f821115620008fd57620008c78162000786565b620008d28462000798565b81016020851015620008e2578190505b620008fa620008f18562000798565b8301826200088c565b50505b505050565b5f82821c905092915050565b5f6200091f5f198460080262000902565b1980831691505092915050565b5f6200093983836200090e565b9150826002028217905092915050565b6200095482620006ee565b67ffffffffffffffff81111562000970576200096f620006f8565b5b6200097c825462000752565b62000989828285620008b2565b5f60209050601f831160018114620009bf575f8415620009aa578287015190505b620009b685826200092c565b86555062000a25565b601f198416620009cf8662000786565b5f5b82811015620009f857848901518255600182019150602085019450602081019050620009d1565b8683101562000a18578489015162000a14601f8916826200090e565b8355505b6001600288020188555050505b505050505050565b61569e8062000a3b5f395ff3fe608060405260043610610275575f3560e01c8063715018a61161014e578063b3ff9cb3116100c0578063d42fd4ca11610079578063d42fd4ca14610990578063e46c109c146109d1578063e73ff126146109fb578063e985e9c514610a39578063f2fde38b14610a75578063fdfedc3614610a9d576102ca565b8063b3ff9cb314610878578063b88d4fde146108a0578063ba7aef43146108c8578063c39cbef114610904578063c87b56dd1461092c578063ccf670f814610968576102ca565b80638f649a9f116101125780638f649a9f1461076e57806395d89b41146107aa578063a22cb465146107d4578063a3776323146107fc578063a58a21f814610826578063b17669c114610850576102ca565b8063715018a6146106ac57806372d3fd4a146106c257806382cb7c70146107005780638d2933d3146107285780638da5cb5b14610744576102ca565b80633ccfd60b116101e757806361a2db04116101ab57806361a2db0414610592578063634d8b9f146105ba5780636352211e146105e257806366867b4b1461061e5780636b2f60c81461064657806370a0823114610670576102ca565b80633ccfd60b146104e057806342842e0e146104ea57806342966c681461051257806359dc599f1461053a5780635faf288014610576576102ca565b806309b6f7a91161023957806309b6f7a9146103d45780630ce90ec2146103fc578063105b45c91461041857806323b872dd146104545780632e1a7d4d1461047c57806332680efe146104a4576102ca565b806301ffc9a7146102ce57806306fdde031461030a5780630748da1314610334578063081812fc14610370578063095ea7b3146103ac576102ca565b366102ca573373ffffffffffffffffffffffffffffffffffffffff167fe1fffcc4923d04b559f4d29a8bfc6cda04eb5b0d3c460751c2402c5c5cc9109c346040516102c09190613733565b60405180910390a2005b5f80fd5b3480156102d9575f80fd5b506102f460048036038101906102ef91906137b2565b610ab3565b60405161030191906137f7565b60405180910390f35b348015610315575f80fd5b5061031e610b94565b60405161032b919061389a565b60405180910390f35b34801561033f575f80fd5b5061035a60048036038101906103559190613a40565b610c24565b6040516103679190613733565b60405180910390f35b34801561037b575f80fd5b5061039660048036038101906103919190613ac4565b610c59565b6040516103a39190613afe565b60405180910390f35b3480156103b7575f80fd5b506103d260048036038101906103cd9190613b17565b610c9b565b005b3480156103df575f80fd5b506103fa60048036038101906103f59190613b55565b610db1565b005b61041660048036038101906104119190613ac4565b610f16565b005b348015610423575f80fd5b5061043e60048036038101906104399190613ac4565b610fb2565b60405161044b9190613afe565b60405180910390f35b34801561045f575f80fd5b5061047a60048036038101906104759190613b93565b610fe2565b005b348015610487575f80fd5b506104a2600480360381019061049d9190613ac4565b611042565b005b3480156104af575f80fd5b506104ca60048036038101906104c59190613be3565b611252565b6040516104d79190613733565b60405180910390f35b6104e8611267565b005b3480156104f5575f80fd5b50610510600480360381019061050b9190613b93565b6112c6565b005b34801561051d575f80fd5b5061053860048036038101906105339190613ac4565b6112e5565b005b348015610545575f80fd5b50610560600480360381019061055b9190613be3565b611341565b60405161056d9190613cc5565b60405180910390f35b610590600480360381019061058b9190613b55565b61148c565b005b34801561059d575f80fd5b506105b860048036038101906105b39190613ac4565b6115c8565b005b3480156105c5575f80fd5b506105e060048036038101906105db9190613be3565b6115da565b005b3480156105ed575f80fd5b5061060860048036038101906106039190613ac4565b611625565b6040516106159190613afe565b60405180910390f35b348015610629575f80fd5b50610644600480360381019061063f9190613b55565b6116a9565b005b348015610651575f80fd5b5061065a611813565b6040516106679190613733565b60405180910390f35b34801561067b575f80fd5b5061069660048036038101906106919190613be3565b61181c565b6040516106a39190613733565b60405180910390f35b3480156106b7575f80fd5b506106c06118d0565b005b3480156106cd575f80fd5b506106e860048036038101906106e39190613ac4565b6118e3565b6040516106f793929190613ce5565b60405180910390f35b34801561070b575f80fd5b5061072660048036038101906107219190613d21565b61199e565b005b610742600480360381019061073d9190613b55565b6119b4565b005b34801561074f575f80fd5b50610758611a51565b6040516107659190613afe565b60405180910390f35b348015610779575f80fd5b50610794600480360381019061078f9190613b55565b611a78565b6040516107a19190613733565b60405180910390f35b3480156107b5575f80fd5b506107be611a98565b6040516107cb919061389a565b60405180910390f35b3480156107df575f80fd5b506107fa60048036038101906107f59190613da5565b611b28565b005b348015610807575f80fd5b50610810611b3e565b60405161081d9190613733565b60405180910390f35b348015610831575f80fd5b5061083a611b47565b6040516108479190613733565b60405180910390f35b34801561085b575f80fd5b5061087660048036038101906108719190613de3565b611b53565b005b348015610883575f80fd5b5061089e60048036038101906108999190613e4f565b611cf6565b005b3480156108ab575f80fd5b506108c660048036038101906108c19190613f34565b611d72565b005b3480156108d3575f80fd5b506108ee60048036038101906108e99190613fb4565b611dd4565b6040516108fb9190613733565b60405180910390f35b34801561090f575f80fd5b5061092a6004803603810190610925919061407d565b611e54565b005b348015610937575f80fd5b50610952600480360381019061094d9190613ac4565b611ef4565b60405161095f919061389a565b60405180910390f35b348015610973575f80fd5b5061098e60048036038101906109899190613ac4565b611f59565b005b34801561099b575f80fd5b506109b660048036038101906109b19190613ac4565b611f6b565b6040516109c896959493929190614114565b60405180910390f35b3480156109dc575f80fd5b506109e5612073565b6040516109f29190613733565b60405180910390f35b348015610a06575f80fd5b50610a216004803603810190610a1c9190613b55565b612083565b604051610a3093929190613ce5565b60405180910390f35b348015610a44575f80fd5b50610a5f6004803603810190610a5a919061417a565b612149565b604051610a6c91906137f7565b60405180910390f35b348015610a80575f80fd5b50610a9b6004803603810190610a969190613be3565b6121d7565b005b348015610aa8575f80fd5b50610ab1612259565b005b5f7f80ac58cd000000000000000000000000000000000000000000000000000000007bffffffffffffffffffffffffffffffffffffffffffffffffffffffff1916827bffffffffffffffffffffffffffffffffffffffffffffffffffffffff19161480610b7d57507f5b5e139f000000000000000000000000000000000000000000000000000000007bffffffffffffffffffffffffffffffffffffffffffffffffffffffff1916827bffffffffffffffffffffffffffffffffffffffffffffffffffffffff1916145b80610b8d5750610b8c82612270565b5b9050919050565b6060600e8054610ba3906141e5565b80601f0160208091040260200160405190810160405280929190818152602001828054610bcf906141e5565b8015610c1a5780601f10610bf157610100808354040283529160200191610c1a565b820191905f5260205f20905b815481529060010190602001808311610bfd57829003601f168201915b5050505050905090565b5f610c2f60146122d9565b5f610c3a60146122ed565b9050610c4684826122f9565b610c4f83611cf6565b8091505092915050565b5f610c638261250c565b60125f8381526020019081526020015f205f9054906101000a900473ffffffffffffffffffffffffffffffffffffffff169050919050565b5f610ca582611625565b90508073ffffffffffffffffffffffffffffffffffffffff168373ffffffffffffffffffffffffffffffffffffffff1603610d15576040517f08c379a0000000000000000000000000000000000000000000000000000000008152600401610d0c90614285565b60405180910390fd5b8073ffffffffffffffffffffffffffffffffffffffff16610d34612557565b73ffffffffffffffffffffffffffffffffffffffff161480610d635750610d6281610d5d612557565b612149565b5b610da2576040517f08c379a0000000000000000000000000000000000000000000000000000000008152600401610d9990614313565b60405180910390fd5b610dac838361255e565b505050565b813373ffffffffffffffffffffffffffffffffffffffff1660055f8381526020019081526020015f205f9054906101000a900473ffffffffffffffffffffffffffffffffffffffff1673ffffffffffffffffffffffffffffffffffffffff1614610e19575f80fd5b6007805490508210610e60576040517f08c379a0000000000000000000000000000000000000000000000000000000008152600401610e579061437b565b60405180910390fd5b610e946001600a5f8681526020019081526020015f205f8581526020019081526020015f205461261490919063ffffffff16565b600a5f8581526020019081526020015f205f8481526020019081526020015f208190555081837f3273c8eae37590353bbb6859a87767429b1ccb2830f9dddac51f8560065e01b4600a5f8781526020019081526020015f205f8681526020019081526020015f2054604051610f099190613733565b60405180910390a3505050565b600c543414610f23575f80fd5b610f6f600160048381548110610f3c57610f3b614399565b5b905f5260205f2090600302016002015f9054906101000a900463ffffffff1663ffffffff1661262990919063ffffffff16565b60048281548110610f8357610f82614399565b5b905f5260205f2090600302016002015f6101000a81548163ffffffff021916908363ffffffff16021790555050565b6005602052805f5260405f205f915054906101000a900473ffffffffffffffffffffffffffffffffffffffff1681565b610ff3610fed612557565b82612692565b611032576040517f08c379a000000000000000000000000000000000000000000000000000000000815260040161102990614436565b60405180910390fd5b61103d838383612726565b505050565b61104a612a12565b5f60149054906101000a900460ff1615611099576040517f08c379a00000000000000000000000000000000000000000000000000000000081526004016110909061449e565b60405180910390fd5b60015f60146101000a81548160ff0219169083151502179055505f81116110f5576040517f08c379a00000000000000000000000000000000000000000000000000000000081526004016110ec9061452c565b60405180910390fd5b47811115611138576040517f08c379a000000000000000000000000000000000000000000000000000000000815260040161112f90614594565b60405180910390fd5b5f611141611a51565b73ffffffffffffffffffffffffffffffffffffffff1682604051611164906145df565b5f6040518083038185875af1925050503d805f811461119e576040519150601f19603f3d011682016040523d82523d5f602084013e6111a3565b606091505b50509050806111e7576040517f08c379a00000000000000000000000000000000000000000000000000000000081526004016111de9061463d565b60405180910390fd5b3373ffffffffffffffffffffffffffffffffffffffff167f7fcf532c15f0a6db0bd6d0e038bea71d30d808c7d98cb3bf7268a95bf5081b658360405161122d9190613733565b60405180910390a2505f8060146101000a81548160ff02191690831515021790555050565b6006602052805f5260405f205f915090505481565b61126f612a12565b5f4790505f61127c611a51565b90508073ffffffffffffffffffffffffffffffffffffffff166108fc8390811502906040515f60405180830381858888f193505050501580156112c1573d5f803e3d5ffd5b505050565b6112e083838360405180602001604052805f815250611d72565b505050565b6112f66112f0612557565b82612692565b611335576040517f08c379a000000000000000000000000000000000000000000000000000000000815260040161132c906146cb565b60405180910390fd5b61133e81612a90565b50565b60605f60065f8473ffffffffffffffffffffffffffffffffffffffff1673ffffffffffffffffffffffffffffffffffffffff1681526020019081526020015f205467ffffffffffffffff81111561139b5761139a61391c565b5b6040519080825280602002602001820160405280156113c95781602001602082028036833780820191505090505b5090505f805b600480549050811015611481578473ffffffffffffffffffffffffffffffffffffffff1660055f8381526020019081526020015f205f9054906101000a900473ffffffffffffffffffffffffffffffffffffffff1673ffffffffffffffffffffffffffffffffffffffff160361146e578083838151811061145357611452614399565b5b602002602001018181525050818061146a90614716565b9250505b808061147990614716565b9150506113cf565b508192505050919050565b813373ffffffffffffffffffffffffffffffffffffffff1660055f8381526020019081526020015f205f9054906101000a900473ffffffffffffffffffffffffffffffffffffffff1673ffffffffffffffffffffffffffffffffffffffff16146114f4575f80fd5b670de0b6b3a764000034101561153f576040517f08c379a0000000000000000000000000000000000000000000000000000000008152600401611536906147cd565b60405180910390fd5b66038d7ea4c68000821015801561155c5750662386f26fc1000082105b61159b576040517f08c379a000000000000000000000000000000000000000000000000000000000815260040161159290614835565b60405180910390fd5b81600484815481106115b0576115af614399565b5b905f5260205f20906003020160010181905550505050565b6115d0612a12565b80600d8190555050565b6115e2612a12565b80600b5f6101000a81548173ffffffffffffffffffffffffffffffffffffffff021916908373ffffffffffffffffffffffffffffffffffffffff16021790555050565b5f8061163083612bd1565b90505f73ffffffffffffffffffffffffffffffffffffffff168173ffffffffffffffffffffffffffffffffffffffff16036116a0576040517f08c379a00000000000000000000000000000000000000000000000000000000081526004016116979061489d565b60405180910390fd5b80915050919050565b813373ffffffffffffffffffffffffffffffffffffffff1660055f8381526020019081526020015f205f9054906101000a900473ffffffffffffffffffffffffffffffffffffffff1673ffffffffffffffffffffffffffffffffffffffff1614611711575f80fd5b6007805490508210611758576040517f08c379a000000000000000000000000000000000000000000000000000000000815260040161174f9061437b565b60405180910390fd5b5f600a5f8581526020019081526020015f205f8481526020019081526020015f2054146117ba576040517f08c379a00000000000000000000000000000000000000000000000000000000081526004016117b190614905565b60405180910390fd5b6001600a5f8581526020019081526020015f205f8481526020019081526020015f208190555081837fc4aeea26b51df0adcfc679f3fb3b15f0f14cb455d09a30b27fad1ecd3720c7d260405160405180910390a3505050565b5f600c54905090565b5f8073ffffffffffffffffffffffffffffffffffffffff168273ffffffffffffffffffffffffffffffffffffffff160361188b576040517f08c379a000000000000000000000000000000000000000000000000000000000815260040161188290614993565b60405180910390fd5b60115f8373ffffffffffffffffffffffffffffffffffffffff1673ffffffffffffffffffffffffffffffffffffffff1681526020019081526020015f20549050919050565b6118d8612a12565b6118e15f612c0a565b565b600781815481106118f2575f80fd5b905f5260205f2090600302015f91509050805f018054611911906141e5565b80601f016020809104026020016040519081016040528092919081815260200182805461193d906141e5565b80156119885780601f1061195f57610100808354040283529160200191611988565b820191905f5260205f20905b81548152906001019060200180831161196b57829003601f168201915b5050505050908060010154908060020154905083565b6119a6612a12565b6119b08282612ccb565b5050565b600d5434146119c1575f80fd5b611a0d6001600484815481106119da576119d9614399565b5b905f5260205f2090600302016002015f9054906101000a900463ffffffff1663ffffffff1661262990919063ffffffff16565b60048381548110611a2157611a20614399565b5b905f5260205f2090600302016002015f6101000a81548163ffffffff021916908363ffffffff1602179055505050565b5f805f9054906101000a900473ffffffffffffffffffffffffffffffffffffffff16905090565b600a602052815f5260405f20602052805f5260405f205f91509150505481565b6060600f8054611aa7906141e5565b80601f0160208091040260200160405190810160405280929190818152602001828054611ad3906141e5565b8015611b1e5780601f10611af557610100808354040283529160200191611b1e565b820191905f5260205f20905b815481529060010190602001808311611b0157829003601f168201915b5050505050905090565b611b3a611b33612557565b8383612d3c565b5050565b5f600d54905090565b5f600780549050905090565b823373ffffffffffffffffffffffffffffffffffffffff1660055f8381526020019081526020015f205f9054906101000a900473ffffffffffffffffffffffffffffffffffffffff1673ffffffffffffffffffffffffffffffffffffffff1614611bbb575f80fd5b5f60048581548110611bd057611bcf614399565b5b905f5260205f2090600302019050611be781612ea3565b611bef575f80fd5b5f60025485611bfe91906149de565b90505f611c2b6002611c1d84866001015461261490919063ffffffff16565b612ec990919063ffffffff16565b9050604051602001611c3c90614a62565b6040516020818303038152906040528051906020012085604051602001611c639190614aa6565b6040516020818303038152906040528051906020012003611ca5576063606482611c8d91906149de565b82611c989190614abc565b611ca29190614aef565b90505b611ce46040518060400160405280600b81526020017f4e6f4e616d6553686b6f6c00000000000000000000000000000000000000000081525082612ede565b611ced836130fd565b50505050505050565b5f60065f3373ffffffffffffffffffffffffffffffffffffffff1673ffffffffffffffffffffffffffffffffffffffff1681526020019081526020015f205414611d3e575f80fd5b5f611d4882613130565b9050606481611d5791906149de565b81611d629190614abc565b9050611d6e8282612ede565b5050565b611d83611d7d612557565b83612692565b611dc2576040517f08c379a0000000000000000000000000000000000000000000000000000000008152600401611db990614436565b60405180910390fd5b611dce848484846131c1565b50505050565b5f662386f26fc100008210611e1e576040517f08c379a0000000000000000000000000000000000000000000000000000000008152600401611e1590614b6c565b60405180910390fd5b611e2860146122d9565b5f611e3360146122ed565b9050611e3f85826122f9565b611e498484612ede565b809150509392505050565b823373ffffffffffffffffffffffffffffffffffffffff1660055f8381526020019081526020015f205f9054906101000a900473ffffffffffffffffffffffffffffffffffffffff1673ffffffffffffffffffffffffffffffffffffffff1614611ebc575f80fd5b828260048681548110611ed257611ed1614399565b5b905f5260205f2090600302015f019182611eed929190614d31565b5050505050565b6060611eff8261250c565b5f611f0861321d565b90505f815111611f265760405180602001604052805f815250611f51565b80611f3084613233565b604051602001611f41929190614dfe565b6040516020818303038152906040525b915050919050565b611f61612a12565b80600c8190555050565b60048181548110611f7a575f80fd5b905f5260205f2090600302015f91509050805f018054611f99906141e5565b80601f0160208091040260200160405190810160405280929190818152602001828054611fc5906141e5565b80156120105780601f10611fe757610100808354040283529160200191612010565b820191905f5260205f20905b815481529060010190602001808311611ff357829003601f168201915b505050505090806001015490806002015f9054906101000a900463ffffffff16908060020160049054906101000a900463ffffffff16908060020160089054906101000a900461ffff169080600201600a9054906101000a900461ffff16905086565b5f61207e60146122ed565b905090565b6008602052815f5260405f20818154811061209c575f80fd5b905f5260205f2090600302015f9150915050805f0180546120bc906141e5565b80601f01602080910402602001604051908101604052809291908181526020018280546120e8906141e5565b80156121335780601f1061210a57610100808354040283529160200191612133565b820191905f5260205f20905b81548152906001019060200180831161211657829003601f168201915b5050505050908060010154908060020154905083565b5f60135f8473ffffffffffffffffffffffffffffffffffffffff1673ffffffffffffffffffffffffffffffffffffffff1681526020019081526020015f205f8373ffffffffffffffffffffffffffffffffffffffff1673ffffffffffffffffffffffffffffffffffffffff1681526020019081526020015f205f9054906101000a900460ff16905092915050565b6121df612a12565b5f73ffffffffffffffffffffffffffffffffffffffff168173ffffffffffffffffffffffffffffffffffffffff160361224d576040517f08c379a000000000000000000000000000000000000000000000000000000000815260040161224490614e91565b60405180910390fd5b61225681612c0a565b50565b612261612a12565b60075f61226e919061366f565b565b5f7f01ffc9a7000000000000000000000000000000000000000000000000000000007bffffffffffffffffffffffffffffffffffffffffffffffffffffffff1916827bffffffffffffffffffffffffffffffffffffffffffffffffffffffff1916149050919050565b6001815f015f828254019250508190555050565b5f815f01549050919050565b5f73ffffffffffffffffffffffffffffffffffffffff168273ffffffffffffffffffffffffffffffffffffffff1603612367576040517f08c379a000000000000000000000000000000000000000000000000000000000815260040161235e90614ef9565b60405180910390fd5b612370816132fd565b156123b0576040517f08c379a00000000000000000000000000000000000000000000000000000000081526004016123a790614f61565b60405180910390fd5b6123bd5f8383600161333d565b6123c6816132fd565b15612406576040517f08c379a00000000000000000000000000000000000000000000000000000000081526004016123fd90614f61565b60405180910390fd5b600160115f8473ffffffffffffffffffffffffffffffffffffffff1673ffffffffffffffffffffffffffffffffffffffff1681526020019081526020015f205f82825401925050819055508160105f8381526020019081526020015f205f6101000a81548173ffffffffffffffffffffffffffffffffffffffff021916908373ffffffffffffffffffffffffffffffffffffffff160217905550808273ffffffffffffffffffffffffffffffffffffffff165f73ffffffffffffffffffffffffffffffffffffffff167fddf252ad1be2c89b69c2b068fc378daa952ba7f163c4a11628f55a4df523b3ef60405160405180910390a46125085f83836001613343565b5050565b612515816132fd565b612554576040517f08c379a000000000000000000000000000000000000000000000000000000000815260040161254b9061489d565b60405180910390fd5b50565b5f33905090565b8160125f8381526020019081526020015f205f6101000a81548173ffffffffffffffffffffffffffffffffffffffff021916908373ffffffffffffffffffffffffffffffffffffffff160217905550808273ffffffffffffffffffffffffffffffffffffffff166125ce83611625565b73ffffffffffffffffffffffffffffffffffffffff167f8c5be1e5ebec7d5bd14f71427d1e84f3dd0314c0f7b2291e5b200ac8c7c3b92560405160405180910390a45050565b5f81836126219190614aef565b905092915050565b5f8082846126379190614f7f565b90508363ffffffff168163ffffffff161015612688576040517f08c379a000000000000000000000000000000000000000000000000000000000815260040161267f90615000565b60405180910390fd5b8091505092915050565b5f8061269d83611625565b90508073ffffffffffffffffffffffffffffffffffffffff168473ffffffffffffffffffffffffffffffffffffffff1614806126df57506126de8185612149565b5b8061271d57508373ffffffffffffffffffffffffffffffffffffffff1661270584610c59565b73ffffffffffffffffffffffffffffffffffffffff16145b91505092915050565b8273ffffffffffffffffffffffffffffffffffffffff1661274682611625565b73ffffffffffffffffffffffffffffffffffffffff161461279c576040517f08c379a00000000000000000000000000000000000000000000000000000000081526004016127939061508e565b60405180910390fd5b5f73ffffffffffffffffffffffffffffffffffffffff168273ffffffffffffffffffffffffffffffffffffffff160361280a576040517f08c379a00000000000000000000000000000000000000000000000000000000081526004016128019061511c565b60405180910390fd5b612817838383600161333d565b8273ffffffffffffffffffffffffffffffffffffffff1661283782611625565b73ffffffffffffffffffffffffffffffffffffffff161461288d576040517f08c379a00000000000000000000000000000000000000000000000000000000081526004016128849061508e565b60405180910390fd5b60125f8281526020019081526020015f205f6101000a81549073ffffffffffffffffffffffffffffffffffffffff0219169055600160115f8573ffffffffffffffffffffffffffffffffffffffff1673ffffffffffffffffffffffffffffffffffffffff1681526020019081526020015f205f8282540392505081905550600160115f8473ffffffffffffffffffffffffffffffffffffffff1673ffffffffffffffffffffffffffffffffffffffff1681526020019081526020015f205f82825401925050819055508160105f8381526020019081526020015f205f6101000a81548173ffffffffffffffffffffffffffffffffffffffff021916908373ffffffffffffffffffffffffffffffffffffffff160217905550808273ffffffffffffffffffffffffffffffffffffffff168473ffffffffffffffffffffffffffffffffffffffff167fddf252ad1be2c89b69c2b068fc378daa952ba7f163c4a11628f55a4df523b3ef60405160405180910390a4612a0d8383836001613343565b505050565b612a1a612557565b73ffffffffffffffffffffffffffffffffffffffff16612a38611a51565b73ffffffffffffffffffffffffffffffffffffffff1614612a8e576040517f08c379a0000000000000000000000000000000000000000000000000000000008152600401612a8590615184565b60405180910390fd5b565b5f612a9a82611625565b9050612aa9815f84600161333d565b612ab282611625565b905060125f8381526020019081526020015f205f6101000a81549073ffffffffffffffffffffffffffffffffffffffff0219169055600160115f8373ffffffffffffffffffffffffffffffffffffffff1673ffffffffffffffffffffffffffffffffffffffff1681526020019081526020015f205f828254039250508190555060105f8381526020019081526020015f205f6101000a81549073ffffffffffffffffffffffffffffffffffffffff0219169055815f73ffffffffffffffffffffffffffffffffffffffff168273ffffffffffffffffffffffffffffffffffffffff167fddf252ad1be2c89b69c2b068fc378daa952ba7f163c4a11628f55a4df523b3ef60405160405180910390a4612bcd815f846001613343565b5050565b5f60105f8381526020019081526020015f205f9054906101000a900473ffffffffffffffffffffffffffffffffffffffff169050919050565b5f805f9054906101000a900473ffffffffffffffffffffffffffffffffffffffff169050815f806101000a81548173ffffffffffffffffffffffffffffffffffffffff021916908373ffffffffffffffffffffffffffffffffffffffff1602179055508173ffffffffffffffffffffffffffffffffffffffff168173ffffffffffffffffffffffffffffffffffffffff167f8be0079c531659141344cd1fd0a4f28419497f9722a3daafe3b4186f6b6457e060405160405180910390a35050565b600760405180606001604052808481526020015f815260200183815250908060018154018082558091505060019003905f5260205f2090600302015f909190919091505f820151815f019081612d2191906151a2565b50602082015181600101556040820151816002015550505050565b8173ffffffffffffffffffffffffffffffffffffffff168373ffffffffffffffffffffffffffffffffffffffff1603612daa576040517f08c379a0000000000000000000000000000000000000000000000000000000008152600401612da1906152bb565b60405180910390fd5b8060135f8573ffffffffffffffffffffffffffffffffffffffff1673ffffffffffffffffffffffffffffffffffffffff1681526020019081526020015f205f8473ffffffffffffffffffffffffffffffffffffffff1673ffffffffffffffffffffffffffffffffffffffff1681526020019081526020015f205f6101000a81548160ff0219169083151502179055508173ffffffffffffffffffffffffffffffffffffffff168373ffffffffffffffffffffffffffffffffffffffff167f17307eab39ab6107e8899845ad3d59bd9653f200f220920489ca2b5937696c3183604051612e9691906137f7565b60405180910390a3505050565b5f428260020160049054906101000a900463ffffffff1663ffffffff1611159050919050565b5f8183612ed691906152d9565b905092915050565b60046040518060c0016040528084815260200183815260200160035442612f059190614aef565b63ffffffff1681526020015f63ffffffff1681526020015f61ffff1681526020015f61ffff16815250908060018154018082558091505060019003905f5260205f2090600302015f909190919091505f820151815f019081612f6791906151a2565b50602082015181600101556040820151816002015f6101000a81548163ffffffff021916908363ffffffff16021790555060608201518160020160046101000a81548163ffffffff021916908363ffffffff16021790555060808201518160020160086101000a81548161ffff021916908361ffff16021790555060a082015181600201600a6101000a81548161ffff021916908361ffff16021790555050505f600160048054905061301a9190614abc565b90503360055f8381526020019081526020015f205f6101000a81548173ffffffffffffffffffffffffffffffffffffffff021916908373ffffffffffffffffffffffffffffffffffffffff16021790555060065f3373ffffffffffffffffffffffffffffffffffffffff1673ffffffffffffffffffffffffffffffffffffffff1681526020019081526020015f205f8154809291906130b890614716565b91905055507f725dc5868eeb42945cc94de22c1b3fcdac104c704231bf0e550d9febda7ab4878184336040516130f093929190615309565b60405180910390a1505050565b6003544261310b9190614aef565b8160020160046101000a81548163ffffffff021916908363ffffffff16021790555050565b5f80826040516020016131439190614aa6565b604051602081830303815290604052805190602001205f1c90506002548161316b91906149de565b90505f600161317983613349565b6131839190614aef565b6001546131909190614abc565b90508181600a6131a09190615474565b6131aa91906154be565b826131b59190614aef565b91508192505050919050565b6131cc848484612726565b6131d88484848461337a565b613217576040517f08c379a000000000000000000000000000000000000000000000000000000000815260040161320e9061556f565b60405180910390fd5b50505050565b606060405180602001604052805f815250905090565b60605f6001613241846134fc565b0190505f8167ffffffffffffffff81111561325f5761325e61391c565b5b6040519080825280601f01601f1916602001820160405280156132915781602001600182028036833780820191505090505b5090505f82602001820190505b6001156132f2578080600190039150507f3031323334353637383961626364656600000000000000000000000000000000600a86061a8153600a85816132e7576132e66149b1565b5b0494505f850361329e575b819350505050919050565b5f8073ffffffffffffffffffffffffffffffffffffffff1661331e83612bd1565b73ffffffffffffffffffffffffffffffffffffffff1614159050919050565b50505050565b50505050565b5f5b600a821061337557600a8261336091906152d9565b9150808061336d90614716565b91505061334b565b919050565b5f61339a8473ffffffffffffffffffffffffffffffffffffffff1661364d565b156134ef578373ffffffffffffffffffffffffffffffffffffffff1663150b7a026133c3612557565b8786866040518563ffffffff1660e01b81526004016133e594939291906155df565b6020604051808303815f875af192505050801561342057506040513d601f19601f8201168201806040525081019061341d919061563d565b60015b61349f573d805f811461344e576040519150601f19603f3d011682016040523d82523d5f602084013e613453565b606091505b505f815103613497576040517f08c379a000000000000000000000000000000000000000000000000000000000815260040161348e9061556f565b60405180910390fd5b805181602001fd5b63150b7a0260e01b7bffffffffffffffffffffffffffffffffffffffffffffffffffffffff1916817bffffffffffffffffffffffffffffffffffffffffffffffffffffffff1916149150506134f4565b600190505b949350505050565b5f805f90507a184f03e93ff9f4daa797ed6e38ed64bf6a1f0100000000000000008310613558577a184f03e93ff9f4daa797ed6e38ed64bf6a1f010000000000000000838161354e5761354d6149b1565b5b0492506040810190505b6d04ee2d6d415b85acef81000000008310613595576d04ee2d6d415b85acef8100000000838161358b5761358a6149b1565b5b0492506020810190505b662386f26fc1000083106135c457662386f26fc1000083816135ba576135b96149b1565b5b0492506010810190505b6305f5e10083106135ed576305f5e10083816135e3576135e26149b1565b5b0492506008810190505b6127108310613612576127108381613608576136076149b1565b5b0492506004810190505b60648310613635576064838161362b5761362a6149b1565b5b0492506002810190505b600a8310613644576001810190505b80915050919050565b5f808273ffffffffffffffffffffffffffffffffffffffff163b119050919050565b5080545f8255600302905f5260205f209081019061368d9190613690565b50565b5b808211156136bf575f8082015f6136a891906136c3565b600182015f9055600282015f905550600301613691565b5090565b5080546136cf906141e5565b5f825580601f106136e057506136fd565b601f0160209004905f5260205f20908101906136fc9190613700565b5b50565b5b80821115613717575f815f905550600101613701565b5090565b5f819050919050565b61372d8161371b565b82525050565b5f6020820190506137465f830184613724565b92915050565b5f604051905090565b5f80fd5b5f80fd5b5f7fffffffff0000000000000000000000000000000000000000000000000000000082169050919050565b6137918161375d565b811461379b575f80fd5b50565b5f813590506137ac81613788565b92915050565b5f602082840312156137c7576137c6613755565b5b5f6137d48482850161379e565b91505092915050565b5f8115159050919050565b6137f1816137dd565b82525050565b5f60208201905061380a5f8301846137e8565b92915050565b5f81519050919050565b5f82825260208201905092915050565b5f5b8381101561384757808201518184015260208101905061382c565b5f8484015250505050565b5f601f19601f8301169050919050565b5f61386c82613810565b613876818561381a565b935061388681856020860161382a565b61388f81613852565b840191505092915050565b5f6020820190508181035f8301526138b28184613862565b905092915050565b5f73ffffffffffffffffffffffffffffffffffffffff82169050919050565b5f6138e3826138ba565b9050919050565b6138f3816138d9565b81146138fd575f80fd5b50565b5f8135905061390e816138ea565b92915050565b5f80fd5b5f80fd5b7f4e487b71000000000000000000000000000000000000000000000000000000005f52604160045260245ffd5b61395282613852565b810181811067ffffffffffffffff821117156139715761397061391c565b5b80604052505050565b5f61398361374c565b905061398f8282613949565b919050565b5f67ffffffffffffffff8211156139ae576139ad61391c565b5b6139b782613852565b9050602081019050919050565b828183375f83830152505050565b5f6139e46139df84613994565b61397a565b905082815260208101848484011115613a00576139ff613918565b5b613a0b8482856139c4565b509392505050565b5f82601f830112613a2757613a26613914565b5b8135613a378482602086016139d2565b91505092915050565b5f8060408385031215613a5657613a55613755565b5b5f613a6385828601613900565b925050602083013567ffffffffffffffff811115613a8457613a83613759565b5b613a9085828601613a13565b9150509250929050565b613aa38161371b565b8114613aad575f80fd5b50565b5f81359050613abe81613a9a565b92915050565b5f60208284031215613ad957613ad8613755565b5b5f613ae684828501613ab0565b91505092915050565b613af8816138d9565b82525050565b5f602082019050613b115f830184613aef565b92915050565b5f8060408385031215613b2d57613b2c613755565b5b5f613b3a85828601613900565b9250506020613b4b85828601613ab0565b9150509250929050565b5f8060408385031215613b6b57613b6a613755565b5b5f613b7885828601613ab0565b9250506020613b8985828601613ab0565b9150509250929050565b5f805f60608486031215613baa57613ba9613755565b5b5f613bb786828701613900565b9350506020613bc886828701613900565b9250506040613bd986828701613ab0565b9150509250925092565b5f60208284031215613bf857613bf7613755565b5b5f613c0584828501613900565b91505092915050565b5f81519050919050565b5f82825260208201905092915050565b5f819050602082019050919050565b613c408161371b565b82525050565b5f613c518383613c37565b60208301905092915050565b5f602082019050919050565b5f613c7382613c0e565b613c7d8185613c18565b9350613c8883613c28565b805f5b83811015613cb8578151613c9f8882613c46565b9750613caa83613c5d565b925050600181019050613c8b565b5085935050505092915050565b5f6020820190508181035f830152613cdd8184613c69565b905092915050565b5f6060820190508181035f830152613cfd8186613862565b9050613d0c6020830185613724565b613d196040830184613724565b949350505050565b5f8060408385031215613d3757613d36613755565b5b5f83013567ffffffffffffffff811115613d5457613d53613759565b5b613d6085828601613a13565b9250506020613d7185828601613ab0565b9150509250929050565b613d84816137dd565b8114613d8e575f80fd5b50565b5f81359050613d9f81613d7b565b92915050565b5f8060408385031215613dbb57613dba613755565b5b5f613dc885828601613900565b9250506020613dd985828601613d91565b9150509250929050565b5f805f60608486031215613dfa57613df9613755565b5b5f613e0786828701613ab0565b9350506020613e1886828701613ab0565b925050604084013567ffffffffffffffff811115613e3957613e38613759565b5b613e4586828701613a13565b9150509250925092565b5f60208284031215613e6457613e63613755565b5b5f82013567ffffffffffffffff811115613e8157613e80613759565b5b613e8d84828501613a13565b91505092915050565b5f67ffffffffffffffff821115613eb057613eaf61391c565b5b613eb982613852565b9050602081019050919050565b5f613ed8613ed384613e96565b61397a565b905082815260208101848484011115613ef457613ef3613918565b5b613eff8482856139c4565b509392505050565b5f82601f830112613f1b57613f1a613914565b5b8135613f2b848260208601613ec6565b91505092915050565b5f805f8060808587031215613f4c57613f4b613755565b5b5f613f5987828801613900565b9450506020613f6a87828801613900565b9350506040613f7b87828801613ab0565b925050606085013567ffffffffffffffff811115613f9c57613f9b613759565b5b613fa887828801613f07565b91505092959194509250565b5f805f60608486031215613fcb57613fca613755565b5b5f613fd886828701613900565b935050602084013567ffffffffffffffff811115613ff957613ff8613759565b5b61400586828701613a13565b925050604061401686828701613ab0565b9150509250925092565b5f80fd5b5f80fd5b5f8083601f84011261403d5761403c613914565b5b8235905067ffffffffffffffff81111561405a57614059614020565b5b60208301915083600182028301111561407657614075614024565b5b9250929050565b5f805f6040848603121561409457614093613755565b5b5f6140a186828701613ab0565b935050602084013567ffffffffffffffff8111156140c2576140c1613759565b5b6140ce86828701614028565b92509250509250925092565b5f63ffffffff82169050919050565b6140f2816140da565b82525050565b5f61ffff82169050919050565b61410e816140f8565b82525050565b5f60c0820190508181035f83015261412c8189613862565b905061413b6020830188613724565b61414860408301876140e9565b61415560608301866140e9565b6141626080830185614105565b61416f60a0830184614105565b979650505050505050565b5f80604083850312156141905761418f613755565b5b5f61419d85828601613900565b92505060206141ae85828601613900565b9150509250929050565b7f4e487b71000000000000000000000000000000000000000000000000000000005f52602260045260245ffd5b5f60028204905060018216806141fc57607f821691505b60208210810361420f5761420e6141b8565b5b50919050565b7f4552433732313a20617070726f76616c20746f2063757272656e74206f776e655f8201527f7200000000000000000000000000000000000000000000000000000000000000602082015250565b5f61426f60218361381a565b915061427a82614215565b604082019050919050565b5f6020820190508181035f83015261429c81614263565b9050919050565b7f4552433732313a20617070726f76652063616c6c6572206973206e6f7420746f5f8201527f6b656e206f776e6572206f7220617070726f76656420666f7220616c6c000000602082015250565b5f6142fd603d8361381a565b9150614308826142a3565b604082019050919050565b5f6020820190508181035f83015261432a816142f1565b9050919050565b7f53686b696c6c20646f6573206e6f7420657869737400000000000000000000005f82015250565b5f61436560158361381a565b915061437082614331565b602082019050919050565b5f6020820190508181035f83015261439281614359565b9050919050565b7f4e487b71000000000000000000000000000000000000000000000000000000005f52603260045260245ffd5b7f4552433732313a2063616c6c6572206973206e6f7420746f6b656e206f776e655f8201527f72206f7220617070726f76656400000000000000000000000000000000000000602082015250565b5f614420602d8361381a565b915061442b826143c6565b604082019050919050565b5f6020820190508181035f83015261444d81614414565b9050919050565b7f5265656e7472616e742063616c6c0000000000000000000000000000000000005f82015250565b5f614488600e8361381a565b915061449382614454565b602082019050919050565b5f6020820190508181035f8301526144b58161447c565b9050919050565b7f5769746864726177616c20616d6f756e74206d757374206265206772656174655f8201527f72207468616e2030000000000000000000000000000000000000000000000000602082015250565b5f61451660288361381a565b9150614521826144bc565b604082019050919050565b5f6020820190508181035f8301526145438161450a565b9050919050565b7f496e73756666696369656e7420636f6e74726163742062616c616e63650000005f82015250565b5f61457e601d8361381a565b91506145898261454a565b602082019050919050565b5f6020820190508181035f8301526145ab81614572565b9050919050565b5f81905092915050565b50565b5f6145ca5f836145b2565b91506145d5826145bc565b5f82019050919050565b5f6145e9826145bf565b9150819050919050565b7f5769746864726177616c206661696c65640000000000000000000000000000005f82015250565b5f61462760118361381a565b9150614632826145f3565b602082019050919050565b5f6020820190508181035f8301526146548161461b565b9050919050565b7f4552433732313a206275726e2063616c6c6572206973206e6f74206f776e65725f8201527f206e6f7220617070726f76656400000000000000000000000000000000000000602082015250565b5f6146b5602d8361381a565b91506146c08261465b565b604082019050919050565b5f6020820190508181035f8301526146e2816146a9565b9050919050565b7f4e487b71000000000000000000000000000000000000000000000000000000005f52601160045260245ffd5b5f6147208261371b565b91507fffffffffffffffffffffffffffffffffffffffffffffffffffffffffffffffff8203614752576147516146e9565b5b600182019050919050565b7f4368616e67696e6720444e41207265717569726573206174206c6561737420315f8201527f206574686572207061796d656e74000000000000000000000000000000000000602082015250565b5f6147b7602e8361381a565b91506147c28261475d565b604082019050919050565b5f6020820190508181035f8301526147e4816147ab565b9050919050565b7f444e41206d75737420616c7761797320626520313620646967697473000000005f82015250565b5f61481f601c8361381a565b915061482a826147eb565b602082019050919050565b5f6020820190508181035f83015261484c81614813565b9050919050565b7f4552433732313a20696e76616c696420746f6b656e20494400000000000000005f82015250565b5f61488760188361381a565b915061489282614853565b602082019050919050565b5f6020820190508181035f8301526148b48161487b565b9050919050565b7f53686b696c6c20616c72656164792061737369676e65640000000000000000005f82015250565b5f6148ef60178361381a565b91506148fa826148bb565b602082019050919050565b5f6020820190508181035f83015261491c816148e3565b9050919050565b7f4552433732313a2061646472657373207a65726f206973206e6f7420612076615f8201527f6c6964206f776e65720000000000000000000000000000000000000000000000602082015250565b5f61497d60298361381a565b915061498882614923565b604082019050919050565b5f6020820190508181035f8301526149aa81614971565b9050919050565b7f4e487b71000000000000000000000000000000000000000000000000000000005f52601260045260245ffd5b5f6149e88261371b565b91506149f38361371b565b925082614a0357614a026149b1565b5b828206905092915050565b5f81905092915050565b7f64657369676e65720000000000000000000000000000000000000000000000005f82015250565b5f614a4c600883614a0e565b9150614a5782614a18565b600882019050919050565b5f614a6c82614a40565b9150819050919050565b5f614a8082613810565b614a8a8185614a0e565b9350614a9a81856020860161382a565b80840191505092915050565b5f614ab18284614a76565b915081905092915050565b5f614ac68261371b565b9150614ad18361371b565b9250828203905081811115614ae957614ae86146e9565b5b92915050565b5f614af98261371b565b9150614b048361371b565b9250828201905080821115614b1c57614b1b6146e9565b5b92915050565b7f444e4120686173206d6f7265207468616e2031362064696769747300000000005f82015250565b5f614b56601b8361381a565b9150614b6182614b22565b602082019050919050565b5f6020820190508181035f830152614b8381614b4a565b9050919050565b5f82905092915050565b5f819050815f5260205f209050919050565b5f6020601f8301049050919050565b5f82821b905092915050565b5f60088302614bf07fffffffffffffffffffffffffffffffffffffffffffffffffffffffffffffffff82614bb5565b614bfa8683614bb5565b95508019841693508086168417925050509392505050565b5f819050919050565b5f614c35614c30614c2b8461371b565b614c12565b61371b565b9050919050565b5f819050919050565b614c4e83614c1b565b614c62614c5a82614c3c565b848454614bc1565b825550505050565b5f90565b614c76614c6a565b614c81818484614c45565b505050565b5b81811015614ca457614c995f82614c6e565b600181019050614c87565b5050565b601f821115614ce957614cba81614b94565b614cc384614ba6565b81016020851015614cd2578190505b614ce6614cde85614ba6565b830182614c86565b50505b505050565b5f82821c905092915050565b5f614d095f1984600802614cee565b1980831691505092915050565b5f614d218383614cfa565b9150826002028217905092915050565b614d3b8383614b8a565b67ffffffffffffffff811115614d5457614d5361391c565b5b614d5e82546141e5565b614d69828285614ca8565b5f601f831160018114614d96575f8415614d84578287013590505b614d8e8582614d16565b865550614df5565b601f198416614da486614b94565b5f5b82811015614dcb57848901358255600182019150602085019450602081019050614da6565b86831015614de85784890135614de4601f891682614cfa565b8355505b6001600288020188555050505b50505050505050565b5f614e098285614a76565b9150614e158284614a76565b91508190509392505050565b7f4f776e61626c653a206e6577206f776e657220697320746865207a65726f20615f8201527f6464726573730000000000000000000000000000000000000000000000000000602082015250565b5f614e7b60268361381a565b9150614e8682614e21565b604082019050919050565b5f6020820190508181035f830152614ea881614e6f565b9050919050565b7f4552433732313a206d696e7420746f20746865207a65726f20616464726573735f82015250565b5f614ee360208361381a565b9150614eee82614eaf565b602082019050919050565b5f6020820190508181035f830152614f1081614ed7565b9050919050565b7f4552433732313a20746f6b656e20616c7265616479206d696e746564000000005f82015250565b5f614f4b601c8361381a565b9150614f5682614f17565b602082019050919050565b5f6020820190508181035f830152614f7881614f3f565b9050919050565b5f614f89826140da565b9150614f94836140da565b9250828201905063ffffffff811115614fb057614faf6146e9565b5b92915050565b7f536166654d61746833323a206164646974696f6e206f766572666c6f770000005f82015250565b5f614fea601d8361381a565b9150614ff582614fb6565b602082019050919050565b5f6020820190508181035f83015261501781614fde565b9050919050565b7f4552433732313a207472616e736665722066726f6d20696e636f7272656374205f8201527f6f776e6572000000000000000000000000000000000000000000000000000000602082015250565b5f61507860258361381a565b91506150838261501e565b604082019050919050565b5f6020820190508181035f8301526150a58161506c565b9050919050565b7f4552433732313a207472616e7366657220746f20746865207a65726f206164645f8201527f7265737300000000000000000000000000000000000000000000000000000000602082015250565b5f61510660248361381a565b9150615111826150ac565b604082019050919050565b5f6020820190508181035f830152615133816150fa565b9050919050565b7f4f776e61626c653a2063616c6c6572206973206e6f7420746865206f776e65725f82015250565b5f61516e60208361381a565b91506151798261513a565b602082019050919050565b5f6020820190508181035f83015261519b81615162565b9050919050565b6151ab82613810565b67ffffffffffffffff8111156151c4576151c361391c565b5b6151ce82546141e5565b6151d9828285614ca8565b5f60209050601f83116001811461520a575f84156151f8578287015190505b6152028582614d16565b865550615269565b601f19841661521886614b94565b5f5b8281101561523f5784890151825560018201915060208501945060208101905061521a565b8683101561525c5784890151615258601f891682614cfa565b8355505b6001600288020188555050505b505050505050565b7f4552433732313a20617070726f766520746f2063616c6c6572000000000000005f82015250565b5f6152a560198361381a565b91506152b082615271565b602082019050919050565b5f6020820190508181035f8301526152d281615299565b9050919050565b5f6152e38261371b565b91506152ee8361371b565b9250826152fe576152fd6149b1565b5b828204905092915050565b5f60608201905061531c5f830186613724565b818103602083015261532e8185613862565b905061533d6040830184613aef565b949350505050565b5f8160011c9050919050565b5f808291508390505b600185111561539a57808604811115615376576153756146e9565b5b60018516156153855780820291505b808102905061539385615345565b945061535a565b94509492505050565b5f826153b2576001905061546d565b816153bf575f905061546d565b81600181146153d557600281146153df5761540e565b600191505061546d565b60ff8411156153f1576153f06146e9565b5b8360020a915084821115615408576154076146e9565b5b5061546d565b5060208310610133831016604e8410600b84101617156154435782820a90508381111561543e5761543d6146e9565b5b61546d565b6154508484846001615351565b92509050818404811115615467576154666146e9565b5b81810290505b9392505050565b5f61547e8261371b565b91506154898361371b565b92506154b67fffffffffffffffffffffffffffffffffffffffffffffffffffffffffffffffff84846153a3565b905092915050565b5f6154c88261371b565b91506154d38361371b565b92508282026154e18161371b565b915082820484148315176154f8576154f76146e9565b5b5092915050565b7f4552433732313a207472616e7366657220746f206e6f6e2045524337323152655f8201527f63656976657220696d706c656d656e7465720000000000000000000000000000602082015250565b5f61555960328361381a565b9150615564826154ff565b604082019050919050565b5f6020820190508181035f8301526155868161554d565b9050919050565b5f81519050919050565b5f82825260208201905092915050565b5f6155b18261558d565b6155bb8185615597565b93506155cb81856020860161382a565b6155d481613852565b840191505092915050565b5f6080820190506155f25f830187613aef565b6155ff6020830186613aef565b61560c6040830185613724565b818103606083015261561e81846155a7565b905095945050505050565b5f8151905061563781613788565b92915050565b5f6020828403121561565257615651613755565b5b5f61565f84828501615629565b9150509291505056fea264697066735822122099dda6c8194714e7aaaf35454c0c3146308da0e7c03d69c7510ab5107474e19c64736f6c63430008140033",
  "immutableReferences": {},
  "source": "// SPDX-License-Identifier: MIT\npragma solidity ^0.8.0;\n\nimport \"@openzeppelin/contracts/token/ERC721/ERC721.sol\";\nimport \"@openzeppelin/contracts/utils/Counters.sol\";\nimport { ShkolHelper } from \"./ShkolHelper.sol\";\n\ncontract ShkolOwnership is ShkolHelper, ERC721 {\n    using Counters for Counters.Counter;\n    Counters.Counter private _tokenIds;\n\n    constructor() ERC721(\"Shkolz\", \"ITM\") {}\n\n    function mint(address to, string memory name, uint256 dna) public returns (uint256) {\n        require(dna < 10**16, \"DNA has more than 16 digits\");\n        _tokenIds.increment();\n\n        uint256 newItemId = _tokenIds.current();\n        _mint(to, newItemId);\n        _createShkol(name, dna);\n\n        return newItemId;\n    }\n\n    function mintRandom(address to, string memory name) public returns (uint256) {\n        _tokenIds.increment();\n\n        uint256 newItemId = _tokenIds.current();\n        _mint(to, newItemId);\n        // Call `createRandomShkol` to generate a random DNA\n        createRandomShkol(name);\n\n        return newItemId;\n    }\n\n    function burn(uint256 tokenId) public {\n        require(_isApprovedOrOwner(_msgSender(), tokenId), \"ERC721: burn caller is not owner nor approved\");\n        _burn(tokenId);\n    }\n\n    function getShkolzCount() public view returns (uint256) {\n    return _tokenIds.current();\n}\n}\n",
  "sourcePath": "/Users/iri369/code/openzep/shkolz/contracts/ShkolOwnership.sol",
  "compiler": {
    "name": "solc",
    "version": "0.8.20+commit.a1b79de6.Emscripten.clang"
  },
  "schemaVersion": "3.4.14",
  "updatedAt": "2023-07-28T09:39:49.792Z",
  "devdoc": {
    "events": {
      "Approval(address,address,uint256)": {
        "details": "Emitted when `owner` enables `approved` to manage the `tokenId` token."
      },
      "ApprovalForAll(address,address,bool)": {
        "details": "Emitted when `owner` enables or disables (`approved`) `operator` to manage all of its assets."
      },
      "Transfer(address,address,uint256)": {
        "details": "Emitted when `tokenId` token is transferred from `from` to `to`."
      }
    },
    "kind": "dev",
    "methods": {
      "approve(address,uint256)": {
        "details": "See {IERC721-approve}."
      },
      "balanceOf(address)": {
        "details": "See {IERC721-balanceOf}."
      },
      "getApproved(uint256)": {
        "details": "See {IERC721-getApproved}."
      },
      "isApprovedForAll(address,address)": {
        "details": "See {IERC721-isApprovedForAll}."
      },
      "name()": {
        "details": "See {IERC721Metadata-name}."
      },
      "owner()": {
        "details": "Returns the address of the current owner."
      },
      "ownerOf(uint256)": {
        "details": "See {IERC721-ownerOf}."
      },
      "renounceOwnership()": {
        "details": "Leaves the contract without owner. It will not be possible to call `onlyOwner` functions. Can only be called by the current owner. NOTE: Renouncing ownership will leave the contract without an owner, thereby disabling any functionality that is only available to the owner."
      },
      "safeTransferFrom(address,address,uint256)": {
        "details": "See {IERC721-safeTransferFrom}."
      },
      "safeTransferFrom(address,address,uint256,bytes)": {
        "details": "See {IERC721-safeTransferFrom}."
      },
      "setApprovalForAll(address,bool)": {
        "details": "See {IERC721-setApprovalForAll}."
      },
      "supportsInterface(bytes4)": {
        "details": "See {IERC165-supportsInterface}."
      },
      "symbol()": {
        "details": "See {IERC721Metadata-symbol}."
      },
      "tokenURI(uint256)": {
        "details": "See {IERC721Metadata-tokenURI}."
      },
      "transferFrom(address,address,uint256)": {
        "details": "See {IERC721-transferFrom}."
      },
      "transferOwnership(address)": {
        "details": "Transfers ownership of the contract to a new account (`newOwner`). Can only be called by the current owner."
      }
    },
    "version": 1
  },
  "userdoc": {
    "kind": "user",
    "methods": {},
    "version": 1
  }
}