{
  "contractName": "ShkolHelper",
  "abi": [
    {
      "anonymous": false,
      "inputs": [
        {
          "indexed": true,
          "internalType": "address",
          "name": "account",
          "type": "address"
        },
        {
          "indexed": false,
          "internalType": "uint256",
          "name": "amount",
          "type": "uint256"
        }
      ],
      "name": "Deposit",
      "type": "event"
    },
    {
      "anonymous": false,
      "inputs": [
        {
          "indexed": false,
          "internalType": "uint256",
          "name": "shkolId",
          "type": "uint256"
        },
        {
          "indexed": false,
          "internalType": "string",
          "name": "name",
          "type": "string"
        },
        {
          "indexed": false,
          "internalType": "address",
          "name": "owner",
          "type": "address"
        }
      ],
      "name": "NewShkol",
      "type": "event"
    },
    {
      "anonymous": false,
      "inputs": [
        {
          "indexed": true,
          "internalType": "address",
          "name": "previousOwner",
          "type": "address"
        },
        {
          "indexed": true,
          "internalType": "address",
          "name": "newOwner",
          "type": "address"
        }
      ],
      "name": "OwnershipTransferred",
      "type": "event"
    },
    {
      "anonymous": false,
      "inputs": [
        {
          "indexed": true,
          "internalType": "uint256",
          "name": "shkolId",
          "type": "uint256"
        },
        {
          "indexed": true,
          "internalType": "uint256",
          "name": "shkillId",
          "type": "uint256"
        }
      ],
      "name": "ShkillAssigned",
      "type": "event"
    },
    {
      "anonymous": false,
      "inputs": [
        {
          "indexed": true,
          "internalType": "uint256",
          "name": "shkolId",
          "type": "uint256"
        },
        {
          "indexed": true,
          "internalType": "uint256",
          "name": "shkillId",
          "type": "uint256"
        },
        {
          "indexed": false,
          "internalType": "uint256",
          "name": "newLevel",
          "type": "uint256"
        }
      ],
      "name": "ShkillLeveledUp",
      "type": "event"
    },
    {
      "anonymous": false,
      "inputs": [
        {
          "indexed": true,
          "internalType": "address",
          "name": "account",
          "type": "address"
        },
        {
          "indexed": false,
          "internalType": "uint256",
          "name": "amount",
          "type": "uint256"
        }
      ],
      "name": "Withdrawal",
      "type": "event"
    },
    {
      "inputs": [
        {
          "internalType": "string",
          "name": "_name",
          "type": "string"
        },
        {
          "internalType": "uint256",
          "name": "_complexity",
          "type": "uint256"
        }
      ],
      "name": "addShkill",
      "outputs": [],
      "stateMutability": "nonpayable",
      "type": "function"
    },
    {
      "inputs": [
        {
          "internalType": "uint256",
          "name": "_shkolId",
          "type": "uint256"
        },
        {
          "internalType": "uint256",
          "name": "shkillId",
          "type": "uint256"
        },
        {
          "internalType": "string",
          "name": "_shkillType",
          "type": "string"
        }
      ],
      "name": "advanceShkill",
      "outputs": [],
      "stateMutability": "nonpayable",
      "type": "function"
    },
    {
      "inputs": [
        {
          "internalType": "uint256",
          "name": "_shkolId",
          "type": "uint256"
        },
        {
          "internalType": "uint256",
          "name": "_shkillId",
          "type": "uint256"
        }
      ],
      "name": "assignShkillToShkol",
      "outputs": [],
      "stateMutability": "nonpayable",
      "type": "function"
    },
    {
      "inputs": [],
      "name": "clearShkillz",
      "outputs": [],
      "stateMutability": "nonpayable",
      "type": "function"
    },
    {
      "inputs": [
        {
          "internalType": "string",
          "name": "_name",
          "type": "string"
        }
      ],
      "name": "createRandomShkol",
      "outputs": [],
      "stateMutability": "nonpayable",
      "type": "function"
    },
    {
      "inputs": [],
      "name": "getShkillzLength",
      "outputs": [
        {
          "internalType": "uint256",
          "name": "",
          "type": "uint256"
        }
      ],
      "stateMutability": "view",
      "type": "function"
    },
    {
      "inputs": [
        {
          "internalType": "uint256",
          "name": "_shkolId",
          "type": "uint256"
        },
        {
          "internalType": "uint256",
          "name": "_shkillId",
          "type": "uint256"
        }
      ],
      "name": "levelUpShkill",
      "outputs": [],
      "stateMutability": "nonpayable",
      "type": "function"
    },
    {
      "inputs": [],
      "name": "owner",
      "outputs": [
        {
          "internalType": "address",
          "name": "",
          "type": "address"
        }
      ],
      "stateMutability": "view",
      "type": "function"
    },
    {
      "inputs": [
        {
          "internalType": "address",
          "name": "",
          "type": "address"
        }
      ],
      "name": "ownerShkolCount",
      "outputs": [
        {
          "internalType": "uint256",
          "name": "",
          "type": "uint256"
        }
      ],
      "stateMutability": "view",
      "type": "function"
    },
    {
      "inputs": [],
      "name": "renounceOwnership",
      "outputs": [],
      "stateMutability": "nonpayable",
      "type": "function"
    },
    {
      "inputs": [
        {
          "internalType": "address",
          "name": "_address",
          "type": "address"
        }
      ],
      "name": "setPoapContractAddress",
      "outputs": [],
      "stateMutability": "nonpayable",
      "type": "function"
    },
    {
      "inputs": [
        {
          "internalType": "uint256",
          "name": "",
          "type": "uint256"
        }
      ],
      "name": "shkillz",
      "outputs": [
        {
          "internalType": "string",
          "name": "name",
          "type": "string"
        },
        {
          "internalType": "uint256",
          "name": "level",
          "type": "uint256"
        },
        {
          "internalType": "uint256",
          "name": "complexityIndex",
          "type": "uint256"
        }
      ],
      "stateMutability": "view",
      "type": "function"
    },
    {
      "inputs": [
        {
          "internalType": "uint256",
          "name": "",
          "type": "uint256"
        },
        {
          "internalType": "uint256",
          "name": "",
          "type": "uint256"
        }
      ],
      "name": "shkolIdToShkillLevel",
      "outputs": [
        {
          "internalType": "uint256",
          "name": "",
          "type": "uint256"
        }
      ],
      "stateMutability": "view",
      "type": "function"
    },
    {
      "inputs": [
        {
          "internalType": "uint256",
          "name": "",
          "type": "uint256"
        }
      ],
      "name": "shkolToOwner",
      "outputs": [
        {
          "internalType": "address",
          "name": "",
          "type": "address"
        }
      ],
      "stateMutability": "view",
      "type": "function"
    },
    {
      "inputs": [
        {
          "internalType": "uint256",
          "name": "",
          "type": "uint256"
        },
        {
          "internalType": "uint256",
          "name": "",
          "type": "uint256"
        }
      ],
      "name": "shkolToShkills",
      "outputs": [
        {
          "internalType": "string",
          "name": "name",
          "type": "string"
        },
        {
          "internalType": "uint256",
          "name": "level",
          "type": "uint256"
        },
        {
          "internalType": "uint256",
          "name": "complexityIndex",
          "type": "uint256"
        }
      ],
      "stateMutability": "view",
      "type": "function"
    },
    {
      "inputs": [
        {
          "internalType": "uint256",
          "name": "",
          "type": "uint256"
        }
      ],
      "name": "shkolz",
      "outputs": [
        {
          "internalType": "string",
          "name": "name",
          "type": "string"
        },
        {
          "internalType": "uint256",
          "name": "dna",
          "type": "uint256"
        },
        {
          "internalType": "uint32",
          "name": "level",
          "type": "uint32"
        },
        {
          "internalType": "uint32",
          "name": "readyTime",
          "type": "uint32"
        },
        {
          "internalType": "uint16",
          "name": "winCount",
          "type": "uint16"
        },
        {
          "internalType": "uint16",
          "name": "lossCount",
          "type": "uint16"
        }
      ],
      "stateMutability": "view",
      "type": "function"
    },
    {
      "inputs": [
        {
          "internalType": "address",
          "name": "newOwner",
          "type": "address"
        }
      ],
      "name": "transferOwnership",
      "outputs": [],
      "stateMutability": "nonpayable",
      "type": "function"
    },
    {
      "stateMutability": "payable",
      "type": "receive"
    },
    {
      "inputs": [],
      "name": "getLevelUpFee",
      "outputs": [
        {
          "internalType": "uint256",
          "name": "",
          "type": "uint256"
        }
      ],
      "stateMutability": "view",
      "type": "function"
    },
    {
      "inputs": [],
      "name": "getValidationFee",
      "outputs": [
        {
          "internalType": "uint256",
          "name": "",
          "type": "uint256"
        }
      ],
      "stateMutability": "view",
      "type": "function"
    },
    {
      "inputs": [
        {
          "internalType": "uint256",
          "name": "_amount",
          "type": "uint256"
        }
      ],
      "name": "withdraw",
      "outputs": [],
      "stateMutability": "nonpayable",
      "type": "function"
    },
    {
      "inputs": [],
      "name": "withdraw",
      "outputs": [],
      "stateMutability": "payable",
      "type": "function"
    },
    {
      "inputs": [
        {
          "internalType": "uint256",
          "name": "_fee",
          "type": "uint256"
        }
      ],
      "name": "setLevelUpFee",
      "outputs": [],
      "stateMutability": "nonpayable",
      "type": "function"
    },
    {
      "inputs": [
        {
          "internalType": "uint256",
          "name": "_fee",
          "type": "uint256"
        }
      ],
      "name": "setValidationFee",
      "outputs": [],
      "stateMutability": "nonpayable",
      "type": "function"
    },
    {
      "inputs": [
        {
          "internalType": "uint256",
          "name": "_shkolId",
          "type": "uint256"
        }
      ],
      "name": "levelUp",
      "outputs": [],
      "stateMutability": "payable",
      "type": "function"
    },
    {
      "inputs": [
        {
          "internalType": "uint256",
          "name": "_shkolId",
          "type": "uint256"
        },
        {
          "internalType": "uint256",
          "name": "_shkillId",
          "type": "uint256"
        }
      ],
      "name": "validateShkill",
      "outputs": [],
      "stateMutability": "payable",
      "type": "function"
    },
    {
      "inputs": [
        {
          "internalType": "uint256",
          "name": "_shkolId",
          "type": "uint256"
        },
        {
          "internalType": "string",
          "name": "_newName",
          "type": "string"
        }
      ],
      "name": "changeName",
      "outputs": [],
      "stateMutability": "nonpayable",
      "type": "function"
    },
    {
      "inputs": [
        {
          "internalType": "uint256",
          "name": "_shkolId",
          "type": "uint256"
        },
        {
          "internalType": "uint256",
          "name": "_newDna",
          "type": "uint256"
        }
      ],
      "name": "changeDna",
      "outputs": [],
      "stateMutability": "payable",
      "type": "function"
    },
    {
      "inputs": [
        {
          "internalType": "address",
          "name": "_owner",
          "type": "address"
        }
      ],
      "name": "getShkolzByOwner",
      "outputs": [
        {
          "internalType": "uint256[]",
          "name": "",
          "type": "uint256[]"
        }
      ],
      "stateMutability": "view",
      "type": "function"
    }
  ],
  "bytecode": "0x60806040526010600155600154600a6200001a91906200060c565b60025562093a8060035564e8d4a51000600c5564174876e800600d5534801562000042575f80fd5b5062000063620000576200007960201b60201c565b6200008060201b60201c565b620000736200014160201b60201c565b6200099b565b5f33905090565b5f805f9054906101000a900473ffffffffffffffffffffffffffffffffffffffff169050815f806101000a81548173ffffffffffffffffffffffffffffffffffffffff021916908373ffffffffffffffffffffffffffffffffffffffff1602179055508173ffffffffffffffffffffffffffffffffffffffff168173ffffffffffffffffffffffffffffffffffffffff167f8be0079c531659141344cd1fd0a4f28419497f9722a3daafe3b4186f6b6457e060405160405180910390a35050565b620001896040518060400160405280600681526020017f417274697374000000000000000000000000000000000000000000000000000081525060086200041360201b60201c565b620001d16040518060400160405280600481526020017f436f6f6b0000000000000000000000000000000000000000000000000000000081525060076200041360201b60201c565b620002196040518060400160405280600881526020017f48616e64796d616e00000000000000000000000000000000000000000000000081525060076200041360201b60201c565b620002616040518060400160405280600681526020017f446f63746f72000000000000000000000000000000000000000000000000000081525060096200041360201b60201c565b620002a96040518060400160405280600981526020017f50726f666573736f72000000000000000000000000000000000000000000000081525060086200041360201b60201c565b620002f16040518060400160405280600681526020017f4c6177796572000000000000000000000000000000000000000000000000000081525060076200041360201b60201c565b620003396040518060400160405280600881526020017f44657369676e657200000000000000000000000000000000000000000000000081525060076200041360201b60201c565b620003816040518060400160405280600a81526020017f50726f6772616d6d65720000000000000000000000000000000000000000000081525060086200041360201b60201c565b620003c96040518060400160405280600881526020017f4d7573696369616e00000000000000000000000000000000000000000000000081525060086200041360201b60201c565b620004116040518060400160405280600781526020017f4174686c6574650000000000000000000000000000000000000000000000000081525060086200041360201b60201c565b565b600760405180606001604052808481526020015f815260200183815250908060018154018082558091505060019003905f5260205f2090600302015f909190919091505f820151815f0190816200046b9190620008b7565b50602082015181600101556040820151816002015550505050565b7f4e487b71000000000000000000000000000000000000000000000000000000005f52601160045260245ffd5b5f8160011c9050919050565b5f808291508390505b60018511156200051057808604811115620004e857620004e762000486565b5b6001851615620004f85780820291505b80810290506200050885620004b3565b9450620004c8565b94509492505050565b5f826200052a5760019050620005fc565b8162000539575f9050620005fc565b81600181146200055257600281146200055d5762000593565b6001915050620005fc565b60ff84111562000572576200057162000486565b5b8360020a9150848211156200058c576200058b62000486565b5b50620005fc565b5060208310610133831016604e8410600b8410161715620005cd5782820a905083811115620005c757620005c662000486565b5b620005fc565b620005dc8484846001620004bf565b92509050818404811115620005f657620005f562000486565b5b81810290505b9392505050565b5f819050919050565b5f620006188262000603565b9150620006258362000603565b9250620006547fffffffffffffffffffffffffffffffffffffffffffffffffffffffffffffffff848462000519565b905092915050565b5f81519050919050565b7f4e487b71000000000000000000000000000000000000000000000000000000005f52604160045260245ffd5b7f4e487b71000000000000000000000000000000000000000000000000000000005f52602260045260245ffd5b5f6002820490506001821680620006d857607f821691505b602082108103620006ee57620006ed62000693565b5b50919050565b5f819050815f5260205f209050919050565b5f6020601f8301049050919050565b5f82821b905092915050565b5f60088302620007527fffffffffffffffffffffffffffffffffffffffffffffffffffffffffffffffff8262000715565b6200075e868362000715565b95508019841693508086168417925050509392505050565b5f819050919050565b5f6200079f62000799620007938462000603565b62000776565b62000603565b9050919050565b5f819050919050565b620007ba836200077f565b620007d2620007c982620007a6565b84845462000721565b825550505050565b5f90565b620007e8620007da565b620007f5818484620007af565b505050565b5b818110156200081c57620008105f82620007de565b600181019050620007fb565b5050565b601f8211156200086b576200083581620006f4565b620008408462000706565b8101602085101562000850578190505b620008686200085f8562000706565b830182620007fa565b50505b505050565b5f82821c905092915050565b5f6200088d5f198460080262000870565b1980831691505092915050565b5f620008a783836200087c565b9150826002028217905092915050565b620008c2826200065c565b67ffffffffffffffff811115620008de57620008dd62000666565b5b620008ea8254620006c0565b620008f782828562000820565b5f60209050601f8311600181146200092d575f841562000918578287015190505b6200092485826200089a565b86555062000993565b601f1984166200093d86620006f4565b5f5b8281101562000966578489015182556001820191506020850194506020810190506200093f565b8683101562000986578489015162000982601f8916826200087c565b8355505b6001600288020188555050505b505050505050565b61311d80620009a95f395ff3fe6080604052600436106101ba575f3560e01c806382cb7c70116100eb578063b3ff9cb311610089578063d42fd4ca11610063578063d42fd4ca146105ed578063e73ff1261461062e578063f2fde38b1461066c578063fdfedc36146106945761020f565b8063b3ff9cb314610575578063c39cbef11461059d578063ccf670f8146105c55761020f565b80638f649a9f116100c55780638f649a9f146104bd578063a3776323146104f9578063a58a21f814610523578063b17669c11461054d5761020f565b806382cb7c701461044f5780638d2933d3146104775780638da5cb5b146104935761020f565b80635faf28801161015857806366867b4b1161013257806366867b4b146103a95780636b2f60c8146103d1578063715018a6146103fb57806372d3fd4a146104115761020f565b80635faf28801461033d57806361a2db0414610359578063634d8b9f146103815761020f565b80632e1a7d4d116101945780632e1a7d4d1461029357806332680efe146102bb5780633ccfd60b146102f757806359dc599f146103015761020f565b806309b6f7a9146102135780630ce90ec21461023b578063105b45c9146102575761020f565b3661020f573373ffffffffffffffffffffffffffffffffffffffff167fe1fffcc4923d04b559f4d29a8bfc6cda04eb5b0d3c460751c2402c5c5cc9109c346040516102059190611d13565b60405180910390a2005b5f80fd5b34801561021e575f80fd5b5061023960048036038101906102349190611d67565b6106aa565b005b61025560048036038101906102509190611da5565b61080f565b005b348015610262575f80fd5b5061027d60048036038101906102789190611da5565b6108ab565b60405161028a9190611e0f565b60405180910390f35b34801561029e575f80fd5b506102b960048036038101906102b49190611da5565b6108db565b005b3480156102c6575f80fd5b506102e160048036038101906102dc9190611e52565b610aeb565b6040516102ee9190611d13565b60405180910390f35b6102ff610b00565b005b34801561030c575f80fd5b5061032760048036038101906103229190611e52565b610b5f565b6040516103349190611f34565b60405180910390f35b61035760048036038101906103529190611d67565b610caa565b005b348015610364575f80fd5b5061037f600480360381019061037a9190611da5565b610de6565b005b34801561038c575f80fd5b506103a760048036038101906103a29190611e52565b610df8565b005b3480156103b4575f80fd5b506103cf60048036038101906103ca9190611d67565b610e43565b005b3480156103dc575f80fd5b506103e5610fad565b6040516103f29190611d13565b60405180910390f35b348015610406575f80fd5b5061040f610fb6565b005b34801561041c575f80fd5b5061043760048036038101906104329190611da5565b610fc9565b60405161044693929190611fde565b60405180910390f35b34801561045a575f80fd5b5061047560048036038101906104709190612146565b611084565b005b610491600480360381019061048c9190611d67565b61109a565b005b34801561049e575f80fd5b506104a7611137565b6040516104b49190611e0f565b60405180910390f35b3480156104c8575f80fd5b506104e360048036038101906104de9190611d67565b61115e565b6040516104f09190611d13565b60405180910390f35b348015610504575f80fd5b5061050d61117e565b60405161051a9190611d13565b60405180910390f35b34801561052e575f80fd5b50610537611187565b6040516105449190611d13565b60405180910390f35b348015610558575f80fd5b50610573600480360381019061056e91906121a0565b611193565b005b348015610580575f80fd5b5061059b6004803603810190610596919061220c565b611336565b005b3480156105a8575f80fd5b506105c360048036038101906105be91906122b0565b6113b2565b005b3480156105d0575f80fd5b506105eb60048036038101906105e69190611da5565b611452565b005b3480156105f8575f80fd5b50610613600480360381019061060e9190611da5565b611464565b60405161062596959493929190612347565b60405180910390f35b348015610639575f80fd5b50610654600480360381019061064f9190611d67565b61156c565b60405161066393929190611fde565b60405180910390f35b348015610677575f80fd5b50610692600480360381019061068d9190611e52565b611632565b005b34801561069f575f80fd5b506106a86116b4565b005b813373ffffffffffffffffffffffffffffffffffffffff1660055f8381526020019081526020015f205f9054906101000a900473ffffffffffffffffffffffffffffffffffffffff1673ffffffffffffffffffffffffffffffffffffffff1614610712575f80fd5b6007805490508210610759576040517f08c379a0000000000000000000000000000000000000000000000000000000008152600401610750906123f7565b60405180910390fd5b61078d6001600a5f8681526020019081526020015f205f8581526020019081526020015f20546116cb90919063ffffffff16565b600a5f8581526020019081526020015f205f8481526020019081526020015f208190555081837f3273c8eae37590353bbb6859a87767429b1ccb2830f9dddac51f8560065e01b4600a5f8781526020019081526020015f205f8681526020019081526020015f20546040516108029190611d13565b60405180910390a3505050565b600c54341461081c575f80fd5b61086860016004838154811061083557610834612415565b5b905f5260205f2090600302016002015f9054906101000a900463ffffffff1663ffffffff166116e090919063ffffffff16565b6004828154811061087c5761087b612415565b5b905f5260205f2090600302016002015f6101000a81548163ffffffff021916908363ffffffff16021790555050565b6005602052805f5260405f205f915054906101000a900473ffffffffffffffffffffffffffffffffffffffff1681565b6108e3611749565b5f60149054906101000a900460ff1615610932576040517f08c379a00000000000000000000000000000000000000000000000000000000081526004016109299061248c565b60405180910390fd5b60015f60146101000a81548160ff0219169083151502179055505f811161098e576040517f08c379a00000000000000000000000000000000000000000000000000000000081526004016109859061251a565b60405180910390fd5b478111156109d1576040517f08c379a00000000000000000000000000000000000000000000000000000000081526004016109c890612582565b60405180910390fd5b5f6109da611137565b73ffffffffffffffffffffffffffffffffffffffff16826040516109fd906125cd565b5f6040518083038185875af1925050503d805f8114610a37576040519150601f19603f3d011682016040523d82523d5f602084013e610a3c565b606091505b5050905080610a80576040517f08c379a0000000000000000000000000000000000000000000000000000000008152600401610a779061262b565b60405180910390fd5b3373ffffffffffffffffffffffffffffffffffffffff167f7fcf532c15f0a6db0bd6d0e038bea71d30d808c7d98cb3bf7268a95bf5081b6583604051610ac69190611d13565b60405180910390a2505f8060146101000a81548160ff02191690831515021790555050565b6006602052805f5260405f205f915090505481565b610b08611749565b5f4790505f610b15611137565b90508073ffffffffffffffffffffffffffffffffffffffff166108fc8390811502906040515f60405180830381858888f19350505050158015610b5a573d5f803e3d5ffd5b505050565b60605f60065f8473ffffffffffffffffffffffffffffffffffffffff1673ffffffffffffffffffffffffffffffffffffffff1681526020019081526020015f205467ffffffffffffffff811115610bb957610bb8612022565b5b604051908082528060200260200182016040528015610be75781602001602082028036833780820191505090505b5090505f805b600480549050811015610c9f578473ffffffffffffffffffffffffffffffffffffffff1660055f8381526020019081526020015f205f9054906101000a900473ffffffffffffffffffffffffffffffffffffffff1673ffffffffffffffffffffffffffffffffffffffff1603610c8c5780838381518110610c7157610c70612415565b5b6020026020010181815250508180610c8890612676565b9250505b8080610c9790612676565b915050610bed565b508192505050919050565b813373ffffffffffffffffffffffffffffffffffffffff1660055f8381526020019081526020015f205f9054906101000a900473ffffffffffffffffffffffffffffffffffffffff1673ffffffffffffffffffffffffffffffffffffffff1614610d12575f80fd5b670de0b6b3a7640000341015610d5d576040517f08c379a0000000000000000000000000000000000000000000000000000000008152600401610d549061272d565b60405180910390fd5b66038d7ea4c680008210158015610d7a5750662386f26fc1000082105b610db9576040517f08c379a0000000000000000000000000000000000000000000000000000000008152600401610db090612795565b60405180910390fd5b8160048481548110610dce57610dcd612415565b5b905f5260205f20906003020160010181905550505050565b610dee611749565b80600d8190555050565b610e00611749565b80600b5f6101000a81548173ffffffffffffffffffffffffffffffffffffffff021916908373ffffffffffffffffffffffffffffffffffffffff16021790555050565b813373ffffffffffffffffffffffffffffffffffffffff1660055f8381526020019081526020015f205f9054906101000a900473ffffffffffffffffffffffffffffffffffffffff1673ffffffffffffffffffffffffffffffffffffffff1614610eab575f80fd5b6007805490508210610ef2576040517f08c379a0000000000000000000000000000000000000000000000000000000008152600401610ee9906123f7565b60405180910390fd5b5f600a5f8581526020019081526020015f205f8481526020019081526020015f205414610f54576040517f08c379a0000000000000000000000000000000000000000000000000000000008152600401610f4b906127fd565b60405180910390fd5b6001600a5f8581526020019081526020015f205f8481526020019081526020015f208190555081837fc4aeea26b51df0adcfc679f3fb3b15f0f14cb455d09a30b27fad1ecd3720c7d260405160405180910390a3505050565b5f600c54905090565b610fbe611749565b610fc75f6117c7565b565b60078181548110610fd8575f80fd5b905f5260205f2090600302015f91509050805f018054610ff790612848565b80601f016020809104026020016040519081016040528092919081815260200182805461102390612848565b801561106e5780601f106110455761010080835404028352916020019161106e565b820191905f5260205f20905b81548152906001019060200180831161105157829003601f168201915b5050505050908060010154908060020154905083565b61108c611749565b6110968282611888565b5050565b600d5434146110a7575f80fd5b6110f36001600484815481106110c0576110bf612415565b5b905f5260205f2090600302016002015f9054906101000a900463ffffffff1663ffffffff166116e090919063ffffffff16565b6004838154811061110757611106612415565b5b905f5260205f2090600302016002015f6101000a81548163ffffffff021916908363ffffffff1602179055505050565b5f805f9054906101000a900473ffffffffffffffffffffffffffffffffffffffff16905090565b600a602052815f5260405f20602052805f5260405f205f91509150505481565b5f600d54905090565b5f600780549050905090565b823373ffffffffffffffffffffffffffffffffffffffff1660055f8381526020019081526020015f205f9054906101000a900473ffffffffffffffffffffffffffffffffffffffff1673ffffffffffffffffffffffffffffffffffffffff16146111fb575f80fd5b5f600485815481106112105761120f612415565b5b905f5260205f2090600302019050611227816118f9565b61122f575f80fd5b5f6002548561123e91906128a5565b90505f61126b600261125d8486600101546116cb90919063ffffffff16565b61191f90919063ffffffff16565b905060405160200161127c90612929565b60405160208183030381529060405280519060200120856040516020016112a3919061296d565b60405160208183030381529060405280519060200120036112e55760636064826112cd91906128a5565b826112d89190612983565b6112e291906129b6565b90505b6113246040518060400160405280600b81526020017f4e6f4e616d6553686b6f6c00000000000000000000000000000000000000000081525082611934565b61132d83611b53565b50505050505050565b5f60065f3373ffffffffffffffffffffffffffffffffffffffff1673ffffffffffffffffffffffffffffffffffffffff1681526020019081526020015f20541461137e575f80fd5b5f61138882611b86565b905060648161139791906128a5565b816113a29190612983565b90506113ae8282611934565b5050565b823373ffffffffffffffffffffffffffffffffffffffff1660055f8381526020019081526020015f205f9054906101000a900473ffffffffffffffffffffffffffffffffffffffff1673ffffffffffffffffffffffffffffffffffffffff161461141a575f80fd5b8282600486815481106114305761142f612415565b5b905f5260205f2090600302015f01918261144b929190612b90565b5050505050565b61145a611749565b80600c8190555050565b60048181548110611473575f80fd5b905f5260205f2090600302015f91509050805f01805461149290612848565b80601f01602080910402602001604051908101604052809291908181526020018280546114be90612848565b80156115095780601f106114e057610100808354040283529160200191611509565b820191905f5260205f20905b8154815290600101906020018083116114ec57829003601f168201915b505050505090806001015490806002015f9054906101000a900463ffffffff16908060020160049054906101000a900463ffffffff16908060020160089054906101000a900461ffff169080600201600a9054906101000a900461ffff16905086565b6008602052815f5260405f208181548110611585575f80fd5b905f5260205f2090600302015f9150915050805f0180546115a590612848565b80601f01602080910402602001604051908101604052809291908181526020018280546115d190612848565b801561161c5780601f106115f35761010080835404028352916020019161161c565b820191905f5260205f20905b8154815290600101906020018083116115ff57829003601f168201915b5050505050908060010154908060020154905083565b61163a611749565b5f73ffffffffffffffffffffffffffffffffffffffff168173ffffffffffffffffffffffffffffffffffffffff16036116a8576040517f08c379a000000000000000000000000000000000000000000000000000000000815260040161169f90612ccd565b60405180910390fd5b6116b1816117c7565b50565b6116bc611749565b60075f6116c99190611c4f565b565b5f81836116d891906129b6565b905092915050565b5f8082846116ee9190612ceb565b90508363ffffffff168163ffffffff16101561173f576040517f08c379a000000000000000000000000000000000000000000000000000000000815260040161173690612d6c565b60405180910390fd5b8091505092915050565b611751611c17565b73ffffffffffffffffffffffffffffffffffffffff1661176f611137565b73ffffffffffffffffffffffffffffffffffffffff16146117c5576040517f08c379a00000000000000000000000000000000000000000000000000000000081526004016117bc90612dd4565b60405180910390fd5b565b5f805f9054906101000a900473ffffffffffffffffffffffffffffffffffffffff169050815f806101000a81548173ffffffffffffffffffffffffffffffffffffffff021916908373ffffffffffffffffffffffffffffffffffffffff1602179055508173ffffffffffffffffffffffffffffffffffffffff168173ffffffffffffffffffffffffffffffffffffffff167f8be0079c531659141344cd1fd0a4f28419497f9722a3daafe3b4186f6b6457e060405160405180910390a35050565b600760405180606001604052808481526020015f815260200183815250908060018154018082558091505060019003905f5260205f2090600302015f909190919091505f820151815f0190816118de9190612df2565b50602082015181600101556040820151816002015550505050565b5f428260020160049054906101000a900463ffffffff1663ffffffff1611159050919050565b5f818361192c9190612ec1565b905092915050565b60046040518060c001604052808481526020018381526020016003544261195b91906129b6565b63ffffffff1681526020015f63ffffffff1681526020015f61ffff1681526020015f61ffff16815250908060018154018082558091505060019003905f5260205f2090600302015f909190919091505f820151815f0190816119bd9190612df2565b50602082015181600101556040820151816002015f6101000a81548163ffffffff021916908363ffffffff16021790555060608201518160020160046101000a81548163ffffffff021916908363ffffffff16021790555060808201518160020160086101000a81548161ffff021916908361ffff16021790555060a082015181600201600a6101000a81548161ffff021916908361ffff16021790555050505f6001600480549050611a709190612983565b90503360055f8381526020019081526020015f205f6101000a81548173ffffffffffffffffffffffffffffffffffffffff021916908373ffffffffffffffffffffffffffffffffffffffff16021790555060065f3373ffffffffffffffffffffffffffffffffffffffff1673ffffffffffffffffffffffffffffffffffffffff1681526020019081526020015f205f815480929190611b0e90612676565b91905055507f725dc5868eeb42945cc94de22c1b3fcdac104c704231bf0e550d9febda7ab487818433604051611b4693929190612ef1565b60405180910390a1505050565b60035442611b6191906129b6565b8160020160046101000a81548163ffffffff021916908363ffffffff16021790555050565b5f8082604051602001611b99919061296d565b604051602081830303815290604052805190602001205f1c905060025481611bc191906128a5565b90505f6001611bcf83611c1e565b611bd991906129b6565b600154611be69190612983565b90508181600a611bf6919061305c565b611c0091906130a6565b82611c0b91906129b6565b91508192505050919050565b5f33905090565b5f5b600a8210611c4a57600a82611c359190612ec1565b91508080611c4290612676565b915050611c20565b919050565b5080545f8255600302905f5260205f2090810190611c6d9190611c70565b50565b5b80821115611c9f575f8082015f611c889190611ca3565b600182015f9055600282015f905550600301611c71565b5090565b508054611caf90612848565b5f825580601f10611cc05750611cdd565b601f0160209004905f5260205f2090810190611cdc9190611ce0565b5b50565b5b80821115611cf7575f815f905550600101611ce1565b5090565b5f819050919050565b611d0d81611cfb565b82525050565b5f602082019050611d265f830184611d04565b92915050565b5f604051905090565b5f80fd5b5f80fd5b611d4681611cfb565b8114611d50575f80fd5b50565b5f81359050611d6181611d3d565b92915050565b5f8060408385031215611d7d57611d7c611d35565b5b5f611d8a85828601611d53565b9250506020611d9b85828601611d53565b9150509250929050565b5f60208284031215611dba57611db9611d35565b5b5f611dc784828501611d53565b91505092915050565b5f73ffffffffffffffffffffffffffffffffffffffff82169050919050565b5f611df982611dd0565b9050919050565b611e0981611def565b82525050565b5f602082019050611e225f830184611e00565b92915050565b611e3181611def565b8114611e3b575f80fd5b50565b5f81359050611e4c81611e28565b92915050565b5f60208284031215611e6757611e66611d35565b5b5f611e7484828501611e3e565b91505092915050565b5f81519050919050565b5f82825260208201905092915050565b5f819050602082019050919050565b611eaf81611cfb565b82525050565b5f611ec08383611ea6565b60208301905092915050565b5f602082019050919050565b5f611ee282611e7d565b611eec8185611e87565b9350611ef783611e97565b805f5b83811015611f27578151611f0e8882611eb5565b9750611f1983611ecc565b925050600181019050611efa565b5085935050505092915050565b5f6020820190508181035f830152611f4c8184611ed8565b905092915050565b5f81519050919050565b5f82825260208201905092915050565b5f5b83811015611f8b578082015181840152602081019050611f70565b5f8484015250505050565b5f601f19601f8301169050919050565b5f611fb082611f54565b611fba8185611f5e565b9350611fca818560208601611f6e565b611fd381611f96565b840191505092915050565b5f6060820190508181035f830152611ff68186611fa6565b90506120056020830185611d04565b6120126040830184611d04565b949350505050565b5f80fd5b5f80fd5b7f4e487b71000000000000000000000000000000000000000000000000000000005f52604160045260245ffd5b61205882611f96565b810181811067ffffffffffffffff8211171561207757612076612022565b5b80604052505050565b5f612089611d2c565b9050612095828261204f565b919050565b5f67ffffffffffffffff8211156120b4576120b3612022565b5b6120bd82611f96565b9050602081019050919050565b828183375f83830152505050565b5f6120ea6120e58461209a565b612080565b9050828152602081018484840111156121065761210561201e565b5b6121118482856120ca565b509392505050565b5f82601f83011261212d5761212c61201a565b5b813561213d8482602086016120d8565b91505092915050565b5f806040838503121561215c5761215b611d35565b5b5f83013567ffffffffffffffff81111561217957612178611d39565b5b61218585828601612119565b925050602061219685828601611d53565b9150509250929050565b5f805f606084860312156121b7576121b6611d35565b5b5f6121c486828701611d53565b93505060206121d586828701611d53565b925050604084013567ffffffffffffffff8111156121f6576121f5611d39565b5b61220286828701612119565b9150509250925092565b5f6020828403121561222157612220611d35565b5b5f82013567ffffffffffffffff81111561223e5761223d611d39565b5b61224a84828501612119565b91505092915050565b5f80fd5b5f80fd5b5f8083601f8401126122705761226f61201a565b5b8235905067ffffffffffffffff81111561228d5761228c612253565b5b6020830191508360018202830111156122a9576122a8612257565b5b9250929050565b5f805f604084860312156122c7576122c6611d35565b5b5f6122d486828701611d53565b935050602084013567ffffffffffffffff8111156122f5576122f4611d39565b5b6123018682870161225b565b92509250509250925092565b5f63ffffffff82169050919050565b6123258161230d565b82525050565b5f61ffff82169050919050565b6123418161232b565b82525050565b5f60c0820190508181035f83015261235f8189611fa6565b905061236e6020830188611d04565b61237b604083018761231c565b612388606083018661231c565b6123956080830185612338565b6123a260a0830184612338565b979650505050505050565b7f53686b696c6c20646f6573206e6f7420657869737400000000000000000000005f82015250565b5f6123e1601583611f5e565b91506123ec826123ad565b602082019050919050565b5f6020820190508181035f83015261240e816123d5565b9050919050565b7f4e487b71000000000000000000000000000000000000000000000000000000005f52603260045260245ffd5b7f5265656e7472616e742063616c6c0000000000000000000000000000000000005f82015250565b5f612476600e83611f5e565b915061248182612442565b602082019050919050565b5f6020820190508181035f8301526124a38161246a565b9050919050565b7f5769746864726177616c20616d6f756e74206d757374206265206772656174655f8201527f72207468616e2030000000000000000000000000000000000000000000000000602082015250565b5f612504602883611f5e565b915061250f826124aa565b604082019050919050565b5f6020820190508181035f830152612531816124f8565b9050919050565b7f496e73756666696369656e7420636f6e74726163742062616c616e63650000005f82015250565b5f61256c601d83611f5e565b915061257782612538565b602082019050919050565b5f6020820190508181035f83015261259981612560565b9050919050565b5f81905092915050565b50565b5f6125b85f836125a0565b91506125c3826125aa565b5f82019050919050565b5f6125d7826125ad565b9150819050919050565b7f5769746864726177616c206661696c65640000000000000000000000000000005f82015250565b5f612615601183611f5e565b9150612620826125e1565b602082019050919050565b5f6020820190508181035f83015261264281612609565b9050919050565b7f4e487b71000000000000000000000000000000000000000000000000000000005f52601160045260245ffd5b5f61268082611cfb565b91507fffffffffffffffffffffffffffffffffffffffffffffffffffffffffffffffff82036126b2576126b1612649565b5b600182019050919050565b7f4368616e67696e6720444e41207265717569726573206174206c6561737420315f8201527f206574686572207061796d656e74000000000000000000000000000000000000602082015250565b5f612717602e83611f5e565b9150612722826126bd565b604082019050919050565b5f6020820190508181035f8301526127448161270b565b9050919050565b7f444e41206d75737420616c7761797320626520313620646967697473000000005f82015250565b5f61277f601c83611f5e565b915061278a8261274b565b602082019050919050565b5f6020820190508181035f8301526127ac81612773565b9050919050565b7f53686b696c6c20616c72656164792061737369676e65640000000000000000005f82015250565b5f6127e7601783611f5e565b91506127f2826127b3565b602082019050919050565b5f6020820190508181035f830152612814816127db565b9050919050565b7f4e487b71000000000000000000000000000000000000000000000000000000005f52602260045260245ffd5b5f600282049050600182168061285f57607f821691505b6020821081036128725761287161281b565b5b50919050565b7f4e487b71000000000000000000000000000000000000000000000000000000005f52601260045260245ffd5b5f6128af82611cfb565b91506128ba83611cfb565b9250826128ca576128c9612878565b5b828206905092915050565b5f81905092915050565b7f64657369676e65720000000000000000000000000000000000000000000000005f82015250565b5f6129136008836128d5565b915061291e826128df565b600882019050919050565b5f61293382612907565b9150819050919050565b5f61294782611f54565b61295181856128d5565b9350612961818560208601611f6e565b80840191505092915050565b5f612978828461293d565b915081905092915050565b5f61298d82611cfb565b915061299883611cfb565b92508282039050818111156129b0576129af612649565b5b92915050565b5f6129c082611cfb565b91506129cb83611cfb565b92508282019050808211156129e3576129e2612649565b5b92915050565b5f82905092915050565b5f819050815f5260205f209050919050565b5f6020601f8301049050919050565b5f82821b905092915050565b5f60088302612a4f7fffffffffffffffffffffffffffffffffffffffffffffffffffffffffffffffff82612a14565b612a598683612a14565b95508019841693508086168417925050509392505050565b5f819050919050565b5f612a94612a8f612a8a84611cfb565b612a71565b611cfb565b9050919050565b5f819050919050565b612aad83612a7a565b612ac1612ab982612a9b565b848454612a20565b825550505050565b5f90565b612ad5612ac9565b612ae0818484612aa4565b505050565b5b81811015612b0357612af85f82612acd565b600181019050612ae6565b5050565b601f821115612b4857612b19816129f3565b612b2284612a05565b81016020851015612b31578190505b612b45612b3d85612a05565b830182612ae5565b50505b505050565b5f82821c905092915050565b5f612b685f1984600802612b4d565b1980831691505092915050565b5f612b808383612b59565b9150826002028217905092915050565b612b9a83836129e9565b67ffffffffffffffff811115612bb357612bb2612022565b5b612bbd8254612848565b612bc8828285612b07565b5f601f831160018114612bf5575f8415612be3578287013590505b612bed8582612b75565b865550612c54565b601f198416612c03866129f3565b5f5b82811015612c2a57848901358255600182019150602085019450602081019050612c05565b86831015612c475784890135612c43601f891682612b59565b8355505b6001600288020188555050505b50505050505050565b7f4f776e61626c653a206e6577206f776e657220697320746865207a65726f20615f8201527f6464726573730000000000000000000000000000000000000000000000000000602082015250565b5f612cb7602683611f5e565b9150612cc282612c5d565b604082019050919050565b5f6020820190508181035f830152612ce481612cab565b9050919050565b5f612cf58261230d565b9150612d008361230d565b9250828201905063ffffffff811115612d1c57612d1b612649565b5b92915050565b7f536166654d61746833323a206164646974696f6e206f766572666c6f770000005f82015250565b5f612d56601d83611f5e565b9150612d6182612d22565b602082019050919050565b5f6020820190508181035f830152612d8381612d4a565b9050919050565b7f4f776e61626c653a2063616c6c6572206973206e6f7420746865206f776e65725f82015250565b5f612dbe602083611f5e565b9150612dc982612d8a565b602082019050919050565b5f6020820190508181035f830152612deb81612db2565b9050919050565b612dfb82611f54565b67ffffffffffffffff811115612e1457612e13612022565b5b612e1e8254612848565b612e29828285612b07565b5f60209050601f831160018114612e5a575f8415612e48578287015190505b612e528582612b75565b865550612eb9565b601f198416612e68866129f3565b5f5b82811015612e8f57848901518255600182019150602085019450602081019050612e6a565b86831015612eac5784890151612ea8601f891682612b59565b8355505b6001600288020188555050505b505050505050565b5f612ecb82611cfb565b9150612ed683611cfb565b925082612ee657612ee5612878565b5b828204905092915050565b5f606082019050612f045f830186611d04565b8181036020830152612f168185611fa6565b9050612f256040830184611e00565b949350505050565b5f8160011c9050919050565b5f808291508390505b6001851115612f8257808604811115612f5e57612f5d612649565b5b6001851615612f6d5780820291505b8081029050612f7b85612f2d565b9450612f42565b94509492505050565b5f82612f9a5760019050613055565b81612fa7575f9050613055565b8160018114612fbd5760028114612fc757612ff6565b6001915050613055565b60ff841115612fd957612fd8612649565b5b8360020a915084821115612ff057612fef612649565b5b50613055565b5060208310610133831016604e8410600b841016171561302b5782820a90508381111561302657613025612649565b5b613055565b6130388484846001612f39565b9250905081840481111561304f5761304e612649565b5b81810290505b9392505050565b5f61306682611cfb565b915061307183611cfb565b925061309e7fffffffffffffffffffffffffffffffffffffffffffffffffffffffffffffffff8484612f8b565b905092915050565b5f6130b082611cfb565b91506130bb83611cfb565b92508282026130c981611cfb565b915082820484148315176130e0576130df612649565b5b509291505056fea2646970667358221220375a4291a49d2036a6e430dcdefb46b0aed7dc1599e111205b780529d74cf8ea64736f6c63430008140033",
  "immutableReferences": {},
  "source": "// SPDX-License-Identifier: MIT\npragma solidity ^0.8.0;\n\nimport {ShkolDevelopment} from \"./ShkolDevelopment.sol\";\nimport {SafeMath32} from \"./util/SafeMath32.sol\";\n\ncontract ShkolHelper is ShkolDevelopment {\n    using SafeMath32 for uint32;\n\n    uint levelUpFee = 0.000001 ether;\n    uint shkillValidationFee = 0.0000001 ether;\n\n    function getLevelUpFee() external view returns (uint) {\n        return levelUpFee;\n    }\n\n    function getValidationFee() external view returns (uint) {\n        return shkillValidationFee;\n    }\n\n    //todo\n    modifier aboveLevel(\n        uint _level,\n        uint _shkolId,\n        uint _shkillId\n    ) {\n        require(shkolz[_shkolId].level >= _level);\n        _;\n    }\n\n    function withdraw() external payable onlyOwner {\n        uint256 balance = address(this).balance;\n        address payable _owner = payable(owner());\n        _owner.transfer(balance);\n    }\n\n    function setLevelUpFee(uint _fee) external onlyOwner {\n        levelUpFee = _fee;\n    }\n\n    function setValidationFee(uint _fee) external onlyOwner {\n        shkillValidationFee = _fee;\n    }\n\n    function levelUp(uint _shkolId) external payable {\n        require(msg.value == levelUpFee);\n        shkolz[_shkolId].level = shkolz[_shkolId].level.add(1);\n    }\n\n    function validateShkill(uint _shkolId, uint _shkillId) external payable {\n        require(msg.value == shkillValidationFee);\n        shkolz[_shkolId].level = shkolz[_shkolId].level.add(1);\n    }\n\n    function changeName(\n        uint _shkolId,\n        string calldata _newName\n    ) external onlyOwnerOf(_shkolId) {\n        shkolz[_shkolId].name = _newName;\n    }\n\n    function changeDna(\n        uint _shkolId,\n        uint _newDna\n    ) external payable onlyOwnerOf(_shkolId) {\n        require(\n            msg.value >= 1 ether,\n            \"Changing DNA requires at least 1 ether payment\"\n        );\n        require(\n            _newDna >= 1e15 && _newDna < 1e16,\n            \"DNA must always be 16 digits\"\n        );\n        shkolz[_shkolId].dna = _newDna;\n    }\n\n    function getShkolzByOwner(\n        address _owner\n    ) external view returns (uint[] memory) {\n        uint[] memory result = new uint[](ownerShkolCount[_owner]);\n        uint counter = 0;\n        for (uint i = 0; i < shkolz.length; i++) {\n            if (shkolToOwner[i] == _owner) {\n                result[counter] = i;\n                counter++;\n            }\n        }\n        return result;\n    }\n}\n",
  "sourcePath": "/Users/iri369/code/openzep/shkolz/contracts/ShkolHelper.sol",
  "compiler": {
    "name": "solc",
    "version": "0.8.20+commit.a1b79de6.Emscripten.clang"
  },
  "schemaVersion": "3.4.14",
  "updatedAt": "2023-07-28T14:42:46.921Z",
  "devdoc": {
    "kind": "dev",
    "methods": {
      "owner()": {
        "details": "Returns the address of the current owner."
      },
      "renounceOwnership()": {
        "details": "Leaves the contract without owner. It will not be possible to call `onlyOwner` functions. Can only be called by the current owner. NOTE: Renouncing ownership will leave the contract without an owner, thereby disabling any functionality that is only available to the owner."
      },
      "transferOwnership(address)": {
        "details": "Transfers ownership of the contract to a new account (`newOwner`). Can only be called by the current owner."
      }
    },
    "version": 1
  },
  "userdoc": {
    "kind": "user",
    "methods": {},
    "version": 1
  }
}